:100000000C943D000C9481020C9481020C948102AA
:100010000C9481020C9481020C9481020C94810254
:100020000C9481020C9481020C94F6010C94CD0185
:100030000C9481020C9481020C9481020C94810234
:100040000C94A4010C9481020C9481020C94810202
:100050000C94810234013A01400146014C015201E5
:1000600058015E01720178017E0184018A019001CC
:1000700096019C0100600066800011241FBECFE540
:10008000D8E0DEBFCDBFE4E7F0E040E017C0B591B7
:10009000A59135912591059107FD0CC0959185910C
:1000A000EF01F92FE82F05900D92A217B307D9F7AA
:1000B000FE0104C01D92A217B307E1F7E937F40768
:0E00C00031F70E947E020C946502F894FFCF87
:0600CE0068656C6C6F0018
:0400D4000706050412
:1000D800CF93DF9341E062E080E390E00E94280143
:1000E80041E060E080E390E00E94280141E062E0A6
:1000F80080E390E00E942801C0E0D0E011C0CE016A
:100108000D2E000CAA0B8C529F4FAF4FFC0164912F
:10011800A7FD608141E083E390E00E9428012196D9
:10012800C430D10564F383ED90E30197F1F700C083
:10013800000040E060E080E390E00E94660182E217
:100148000E94520282E00E94520288E00E945202FB
:1001580089EF90E00197F1F700C0000080E00E946D
:1001680052028CE00E94520289EF90E00197F1F769
:1001780000C0000080E00E94520281E00E9452020A
:100188008DEE92E00197F1F700C0000080E00E9438
:0E019800520286E00E945202DF91CF9108953C
:1001A600DF92EF92FF920F931F93CF93DF93D82E98
:1001B600E12CF12C07E010E03CC04D2D50E0002E64
:1001C60002C0559547950A94E2F74170CE010D2E6F
:1001D600000CAA0B8C529F4FAF4FFC016491A7FDF8
:1001E600608183E390E00E94660101501109219627
:1001F60002C0C0E0D0E0C430D105FCF241E062E0CC
:1002060080E390E00E94660189EF90E00197F1F7A4
:1002160000C0000040E062E080E390E00E946601DA
:1002260081EE94E00197F1F700C000009FEFE91A14
:10023600F90A82E0E816F104E4F2DF91CF911F910A
:0A0246000F91FF90EF90DF900895F4
:100250000F931F93062F10E008301105A0F5F80149
:10026000E65DFF4F0C947802FC01218140FB20F9F0
:10027000218329C0FC01218140FB21F9218323C076
:10028000FC01218140FB22F921831DC0FC01218159
:1002900040FB23F9218317C0FC01218140FB24F995
:1002A000218311C0FC01218140FB25F921830BC072
:1002B000FC01218140FB26F9218305C0FC0121813D
:0C02C00040FB27F921831F910F91089546
:1002CC000F931F93062F10E008301105A0F5F801CD
:1002DC00EE5CFF4F0C947802FC01228140FB20F96C
:1002EC00228329C0FC01228140FB21F9228323C0F7
:1002FC00FC01228140FB22F922831DC0FC012281DA
:10030C0040FB23F9228317C0FC01228140FB24F916
:10031C00228311C0FC01228140FB25F922830BC0F2
:10032C00FC01228140FB26F9228305C0FC012281BD
:0C033C0040FB27F922831F910F910895C8
:100348001F920F920FB60F9211242F933F934F9342
:100358005F936F937F938F939F93AF93BF93EF9325
:10036800FF93E0916000F0916100309709F00995E2
:10037800FF91EF91BF91AF919F918F917F916F9175
:100388005F914F913F912F910F900FBE0F901F904B
:020398001895B6
:10039A001F920F920FB60F9211242F933F934F93F0
:1003AA005F936F937F938F939F93AF93BF93EF93D3
:1003BA00FF93E0916200F0916300309709F009958C
:1003CA00FF91EF91BF91AF919F918F917F916F9123
:1003DA005F914F913F912F910F900FBE0F901F90F9
:0203EA00189564
:1003EC001F920F920FB60F9211242F933F934F939E
:1003FC005F936F937F938F939F93AF93BF93EF9381
:10040C00FF93E0916400F0916500309709F0099535
:10041C00FF91EF91BF91AF919F918F917F916F91D0
:10042C005F914F913F912F910F900FBE0F901F90A6
:02043C00189511
:10043E00CF92DF92EF92CF93DF936B01E82EC0E065
:10044E00D0E003C00E943F022196AE2DC6018C0F54
:10045E009D1FA11DD7FDAA95FC018491A7FD80814A
:10046E008111F0CFDF91CF91EF90DF90CF90089573
:10047E00CF93C82F41E060E080E390E00E946601D8
:10048E008C2F0E94D30089EF90E00197F1F700C006
:06049E000000CF9108955B
:1004A400CF93C82F40E060E080E390E00E946601B3
:1004B4008C2F0E94D30089EF90E00197F1F700C0E0
:0604C4000000CF91089535
:1004CA00EC010E9486020E948502CE010E948702E8
:0604DA00CE010E94830226
:1004E0000E946C006EEC70E080E00E941F02089594
:0C04F000EE0FFF1F0590F491E02D099421
:0604FC000E947002FFCF18
:040502000C94000055
:040506000E946500EA
:02050A00089552
:02050C00089550
:02050E0008954E
:00000001FF
