:1000000047C00000F7C60000F5C60000F3C60000B8
:10001000F1C60000EFC60000EDC600000C941E08FB
:10002000E4C70000B9C700008EC7000063C7000026
:10003000E1C60000DFC60000DDC60000DBC6000030
:10004000D9C60000D7C60000D5C60000D3C6000040
:10005000D1C60000410649065106590661066906E7
:100060003906310644044C0454045C0464046C04F2
:100070003C043404A304A804AE04B504BC048E04F8
:1000800095049C040060006400108E00640084806D
:1000900011241FBECFE5D8E0DEBFCDBFE4E8F0E01D
:1000A00040E017C0B591A59135912591059107FDC7
:1000B0000CC095918591EF01F92FE82F05900D92D5
:1000C000A217B307D9F7FE0104C01D92A217B30708
:1000D000E1F7E039F40731F70AD002C0F894FFCF16
:0E00E000EC010BD007D0CE0106D0CE0105D02A
:0600EE007AD005D0FECF20
:0200F40008956D
:0200F60008956B
:0200F800F1DF36
:0200FA00089567
:1000FC003AD160937000709371008093720090936A
:10010C0073006091700070917100809172009091F9
:10011C00730058D161E082E035D1809170009091EC
:10012C007100A0917200B091730080917000909159
:10013C007100A0917200B09173004097A105B105B8
:10014C0098F462EA7EE080E072D080E85FD091D0D3
:10015C008A3209F437C08DD08A3261F080916E00FA
:10016C00813009F438C0089561EC7EE080E05FD006
:10017C0080E84CC080916F00833081F781E046D0DD
:10018C006DEA7EE080E053D02FEF83ED90E32150B9
:10019C0080409040E1F700C0000081E037D01FD1D3
:1001AC0065EB7EE080E043D02FEF83ED90E32150B0
:1001BC0080409040E1F700C0000081E027D0109211
:1001CC006F00CCCF80916F00833008F0C4CF81E0FA
:0801DC001DD052D1C0CF84C137
:1001E400CF93DF9300D00F92CDB7DEB7C2D2AAD19E
:1001F40009D226D268D282E08A8385E0898389EF96
:1002040064D2CE01019663D20F900F900F90DF91CC
:04021400CF910895E9
:10021800CF93C82F40E060E083E390E016D38C2FA3
:10022800BAD289EF90E00197F1F700C00000CF91B2
:02023800089527
:10023A00CF92DF92EF926B01E82EFB018491E7FCEB
:10024A008081882399F09FEFC91AD90AE90A47D30E
:10025A008FEFC81AD80AE80AAE2DC6010197A1097C
:10026A00FC018491A7FD80818111F1CFEF90DF908D
:04027A00CF90089584
:10027E006F927F928F92CF92DF92EF92CF93DF9316
:10028E002AEF622E2DE0722E20E0822EC0E0D0E00A
:10029E008AEFC82E8DE0D82E80E0E82E60E041E097
:1002AE0080E390E0CFD22FEFC21AD20AE20A8EEF8D
:1002BE00C8168DE0D80680E0E80629F0F6016491B4
:1002CE00E7FC6081ECCF40E06C2F80E390E0BAD287
:1002DE0096EFC92E9DE0D92E90E0E92E64E0C0E0A5
:1002EE0086E390E00BD3882381F0CF5F8FEFC81A9F
:1002FE00D80AE80AC430D9F0F6016491E7FC6081AF
:10030E0086E390E0FBD28111F0CF8C2F90E024E0B9
:10031E00D29F800D911D1124092E000CAA0B825024
:10032E00924FAF4FFC018491A7FD808112C089EFDF
:10033E0090E00197F1F700C00000DF5F9FEF691AB0
:10034E00790A890AD43029F0F301C49187FCC0815F
:10035E009FCFDF91CF91EF90DF90CF908F907F90D6
:04036E006F900895EF
:100372007DD307D39B01AC01A8E2B7E84BD320E0C1
:0E03820038E448EE51E050D3CA01B9010895A5
:100390008230A1F060F0833029F08430B9F460310C
:1003A00090F008956031E8F784E9860F35CF813009
:1003B00071F46031B0F7862F80682ECF603188F7F6
:1003C000862F806C29CF84ED860F26CF089508955F
:1003D00063E67EE080E031DF609170007091710033
:0A03E000809172009091730055C3E4
:1003EA00CF93DF930F92CDB7DEB781E08093690098
:1003FA008983CE010196CED3BE016F5F7F4F89E01C
:10040A0097E0A7D341E064E089E390E01DD26EE46F
:10041A007EE080E00DDF2FEF89E698E121508040F1
:10042A009040E1F700C0000081E0F1DE0FC080E8F3
:10043A00EEDE60916A0070916B0080E090E025D357
:10044A0080916A0090916B000A9741F0809169004F
:10045A00813069F30F90DF91CF91089540E064E015
:10046A0089E390E0F1D1CE01019685D3109269001B
:0A047A0010926B0010926A00E9CFA7
:100484000F931F93CF936EE87EE080E0D4DE2FEFCE
:1004940085EA9EE0215080409040E1F700C00000D2
:1004A40081E0B8DE05E610E0E8DEC82F8823E1F33A
:1004B40080ED8C0FF80181938F01DFDEC817E9F31B
:1004C40060EA7EE080E0B7DEF0E009361F0761F7FE
:1004D4008FE39CE90197F1F700C0000085E690E006
:0804E400CF911F910F9168C335
:1004EC00C8DE8B3281F08D32B9F08D33F1F083366A
:1004FC0009F0089540E065E089E390E0A4D1B9DE0D
:10050C008336E9F3089541E067E089E390E09BD1FD
:10051C00B0DE8B32E9F3089540E067E089E390E0C8
:10052C0092D1A7DE8D32E9F3089541E065E089E3CD
:0C053C0090E089D19EDE8D33E9F3089534
:10054800CF92DF92EF9241E061E083E390E07AD3CB
:1005580041E060E083E390E075D341E061E083E34C
:1005680090E070D38EE0C82E8EE0D82E80E0E82E82
:1005780067E041E083E390E065D38FEFC81AD80ABB
:10058800E80A92E1C9169EE0D90690E0E90629F04A
:10059800F6016491E7FC6081ECCF40E060E083E322
:1005A80090E053D183E034DE87EE93E00197F1F7D2
:1005B80000C0000083E02CDE87EE93E00197F1F79E
:1005C80000C0000083E024DE87EE93E00197F1F796
:1005D80000C0000082E01CDE88E21ADE88E018DE37
:1005E80081E016DE86E014DE8CE012DE87E893E117
:1005F8000197F1F700C00000EF90DF90CF900895C9
:10060800CF93DF9300D0CDB7DEB781E08A8341E096
:1006180067E080E390E016D340E066E080E390E096
:1006280011D3CE01019681D360E070E086E697E0B1
:0C06380054D30F900F90DF91CF910895E4
:100644006F927F928F92CF92DF92EF92CF938AEF45
:10065400682E8DE0782E80E0882E96EFC92E9DE0DE
:10066400D92E90E0E92EC4E060E041E080E390E020
:10067400EBD241E06C2F86E390E0E9D040E06C2FB0
:1006840086E390E0E1D28FEF681A780A880A8FEF48
:10069400C81AD80AE80A8AEFC8168DE0D80680E09E
:1006A400E80649F0F301649187FC6081F601C49186
:1006B400E7FCC081DACFCF91EF90DF90CF908F909D
:0606C4007F906F90089585
:0406CA007894089583
:0406CE008CBF089540
:1006D200FC0183B7887F9081892B83BF8181813020
:1006E20009F441C0C8F1823091F0833031F483B70C
:1006F200886083BF83B7806483BF8281813081F049
:10070200813018F18230D1F0833089F0089583B7B7
:10071200886083BF83B78F7B83BF8281813081F7FB
:1007220083B7806183BF83B78F7D83BF089583B70B
:10073200806183BF83B7806283BF089583B78F7E52
:1007420083BF83B7806283BF089583B78F7E83BFE1
:1007520083B78F7D83BF089583B7877F83BF83B7B6
:100762008F7B83BFCACF83B7877F83BF83B7806402
:0407720083BFC3CFAF
:1007760041E067E089E390E066D241E066E089E324
:1007860090E061D241E065E089E390E05CD241E02F
:0807960064E089E390E057C222
:10079E00AF92BF92CF92DF92EF920F931F93CF93B0
:1007AE00DF93082F10E097E0A92EB12C8EE0C82E13
:1007BE008EE0D82E80E0E82EE50167E0A8010C2E31
:1007CE0002C0559547950A94E2F7417083E390E095
:1007DE0039D021979FEFC91AD90AE90A82E1C816C2
:1007EE008EE0D80680E0E80629F0F6016491E7FC79
:1007FE006081E4CF94E0A91AB10841E061E083E39F
:10080E0090E020D089EF90E00197F1F700C0000052
:10081E0040E061E083E390E015D081EE94E0019733
:10082E00F1F700C000009FEFA916B90609F0BECF80
:10083E00DF91CF911F910F91EF90DF90CF90BF90EE
:04084E00AF900895CA
:100852000F931F93062F10E00830110548F4F8019A
:10086200EE5CFF4F7CC2FC01228140FB27F9228310
:100872001F910F910895FC01228140FB26F92283EA
:100882001F910F910895FC01228140FB20F92283E0
:100892001F910F910895FC01228140FB21F92283CF
:1008A2001F910F910895FC01228140FB22F92283BE
:1008B2001F910F910895FC01228140FB23F92283AD
:1008C2001F910F910895FC01228140FB24F922839C
:1008D2001F910F910895FC01228140FB25F922838B
:0608E2001F910F91089523
:1008E800CF93C82F41E060E083E390E0AEDF8C2F28
:1008F80052DF89EF90E00197F1F700C00000CF9137
:02090800089550
:10090A00462F50E04830510548F4FA01E65CFF4FA3
:10091A0022C2FC01208125FB222720F9822F08957B
:10092A00FC01208126FB222720F9822F0895FC0151
:10093A00208127FB222720F9822F0895FC0120819C
:10094A002170822F0895FC01208126952170822F23
:10095A000895FC01208122FB222720F9822F089585
:10096A00FC01208123FB222720F9822F0895FC0114
:0A097A00208122952170822F08953C
:10098400CF92DF92EF92FF92109274001092750052
:1009940010927600109277001FBC81E090E0E4D1C1
:1009A40088B7806288BF08B605FEFDCFC6B4D7B449
:1009B400E12CF12C80E090E0D7D188B7806288BF29
:1009C40008B605FEFDCFE6B5F7B588B7806288BFE7
:1009D40017BC16BC1DBC1CBC209174003091750062
:1009E400409176005091770061E070E0CB01C6D170
:1009F400DC01CB018E0F9F1FA11DB11DBC01CD01D8
:100A04006C197D098E099F09FF90EF90DF90CF90BC
:020A1400089543
:100A1600C3D1A59F900DB49F900DA49F800D911DED
:040A260011240895FA
:100A2A00A1E21A2EAA1BBB1BFD010DC0AA1FBB1FE8
:100A3A00EE1FFF1FA217B307E407F50720F0A21B5A
:100A4A00B30BE40BF50B661F771F881F991F1A94C7
:100A5A0069F760957095809590959B01AC01BD01F1
:040A6A00CF0108951B
:100A6E0041E067E080E390E0EDDE2FEF80E792E07B
:100A7E00215080409040E1F700C0000040E067E068
:060A8E0080E390E0DFCEE2
:100A94008F929F92AF92BF92CF92DF92EF92FF928A
:100AA4006B017C018AE0C816D104E104F10484F1ED
:100AB40084E6C816D104E104F104C4F088EEC81633
:100AC40083E0D806E104F104ACF5C701B60124E6DD
:100AD40030E040E050E070D1CA01B9012AE030E0D2
:100AE40040E050E069D180E3860FFCDE8AE0882E86
:100AF400912CA12CB12CC701B601A50194015CD1A4
:100B0400CA01B901A501940157D180E3860FEADE39
:100B1400C701B6012AE030E040E050E04DD180E367
:100B2400860FFF90EF90DF90CF90BF90AF909F9093
:100B34008F90D8CEC701B60128EE33E040E050E0F4
:100B44003BD1CA01B9012AE030E040E050E034D1A1
:080B540080E3860FC7DEB9CF74
:100B5C009C01FB019081992341F0913029F4309351
:100B6C007B0020937A0008950895309379002093A8
:040B7C007800089560
:100B8000FC018081882339F0813021F489B78D7F81
:0E0B900089BF0895089589B78E7F89BF0895A3
:100B9E00FC018081882339F0813021F489B782608D
:0E0BAE0089BF0895089589B7816089BF0895B1
:100BBC0040916400FC0120E030E09191D901A05AF1
:100BCC00BF4F8C91981759F12F5F3F4F243031054F
:100BDC00A1F74093640081E019DB809164008430BC
:100BEC0001F140E066E089E390E02DDE62E87EE012
:100BFC0080E01DDB10926E0080916F008F5F809300
:100C0C006F002FEF85EA9EE0215080409040E1F785
:100C1C0000C0000081E0FADA1092640008954F5F82
:100C2C00D3CF41E066E089E390E00DDE61E77EE042
:100C3C0080E0FDDA81E080936E0010926F00E1CFCE
:100C4C000F931F93062F10E00830110548F4F8019C
:100C5C00E65DFF4F7FC0FC01218140FB27F921831A
:100C6C001F910F910895FC01218140FB26F92183EE
:100C7C001F910F910895FC01218140FB20F92183E4
:100C8C001F910F910895FC01218140FB21F92183D3
:100C9C001F910F910895FC01218140FB22F92183C2
:100CAC001F910F910895FC01218140FB23F92183B1
:100CBC001F910F910895FC01218140FB24F92183A0
:100CCC001F910F910895FC01218140FB25F921838F
:060CDC001F910F91089525
:100CE2006130F1F0A8F0623019F0633049F00895F4
:100CF20029B7206129BF90938100809380000895D5
:100D020029B7206229BF90938300809382000895BF
:100D120029B7246029BF90937D0080937C000895B9
:100D220029B7286029BF90937F0080937E000895A1
:100D3200FC019EB5987F2181922B9EBD2EB590819C
:100D420030E4939FC0011124922F9F7B892B8EBD8B
:0E0D52001DBC1CBC17BC16BC8CE08FBD0895E8
:0C0D6000EE0FFF1F0590F491E02D0994A8
:100D6C00813021F08EB58F7B8EBD08958EB5806459
:040D7C008EBD08958B
:100D8000DB018F939F9347DEBF91AF91A29F800DB0
:0E0D9000911DA39F900DB29F900D1124089508
:100D9E00A29FB001B39FC001A39F700D811D1124AE
:0E0DAE00911DB29F700D811D1124911D08959D
:100DBC00052E97FB16F400940FD057FD05D02FDEAF
:100DCC0007FC02D046F408C050954095309521950B
:080DDC003F4F4F4F5F4F089598
:100DE40090958095709561957F4F8F4F9F4F089593
:020DF40005C92F
:040DF60004050607E3
:040DFA0000010203EF
:100DFE003738392F3435362A3132332D63303D2B87
:040E0E0007060504CA
:100E120080916C0090916D00019690936D0080938B
:100E22006C0080916C0090916D00CE9709F008954E
:100E320080916A0090916B00019690936B00809371
:0C0E42006A0010926D0010926C00089580
:100E4E00205761697420666F72203130207365639C
:100E5E006F6E6473002044697374616E63652069FC
:100E6E007320002057656C636F6D6520736172612E
:100E7E00682120002054727920616761696E20001C
:100E8E0020456E7465722070617373776F72643A69
:100E9E0020002A002057656C636F6D6520200020AE
:100EAE004C6F636B6564005F5F20556E6C6F636B98
:0E0EBE00656400204E6F206F626A65637400E9
:100ECC008091740090917500A0917600B09177009C
:100EDC000196A11DB11D8093740090937500A09391
:080EEC007600B0937700089531
:100EF4001F920F920FB60F9211242F933F934F938B
:100F04005F936F937F938F939F93AF93BF93EF936D
:100F1400FF93E0917800F0917900309709F00995FA
:100F2400FF91EF91BF91AF919F918F917F916F91BD
:100F34005F914F913F912F910F900FBE0F901F9093
:020F44001895FE
:100F46001F920F920FB60F9211242F933F934F9338
:100F56005F936F937F938F939F93AF93BF93EF931B
:100F6600FF93E0917A00F0917B00309709F00995A4
:100F7600FF91EF91BF91AF919F918F917F916F916B
:100F86005F914F913F912F910F900FBE0F901F9041
:020F96001895AC
:100F98001F920F920FB60F9211242F933F934F93E6
:100FA8005F936F937F938F939F93AF93BF93EF93C9
:100FB800FF93E0917C00F0917D00309709F009954E
:100FC800FF91EF91BF91AF919F918F917F916F9119
:100FD8005F914F913F912F910F900FBE0F901F90EF
:020FE80018955A
:100FEA001F920F920FB60F9211242F933F934F9394
:100FFA005F936F937F938F939F93AF93BF93EF9377
:10100A00FF93E0917E00F0917F00309709F00995F7
:10101A00FF91EF91BF91AF919F918F917F916F91C6
:10102A005F914F913F912F910F900FBE0F901F909C
:02103A00189507
:10103C001F920F920FB60F9211242F933F934F9341
:10104C005F936F937F938F939F93AF93BF93EF9324
:10105C00FF93E0918000F0918100309709F00995A1
:10106C00FF91EF91BF91AF919F918F917F916F9174
:10107C005F914F913F912F910F900FBE0F901F904A
:02108C001895B5
:04108E000102030454
:00000001FF
