:1000000044C00000E9C40000E7C40000E5C40000EB
:10001000E3C40000E1C40000DFC40000DDC4000050
:10002000DBC40000D9C400004AC500001FC50000A1
:10003000D3C40000D1C40000CFC40000CDC4000070
:10004000ECC40000C9C40000C7C40000C5C400005F
:10005000C3C400002C0434043C0444044C04540481
:1000600024041C04CD01D501DD01E501ED01F501FC
:10007000C501BD015A035F0365036C0373034503A8
:100080004C03530300600068800011241FBECFE5BD
:10009000D8E0DEBFCDBFE4E8F0E040E017C0B591A6
:1000A000A59135912591059107FD0CC095918591FC
:1000B000EF01F92FE82F05900D92A217B307D9F79A
:1000C000FE0104C01D92A217B307E1F7E938F40757
:0A00D00031F70AD002C0F894FFCF08
:0E00DA00EC0111D00DD0CE010CD0CE010BD018
:1000E8008CD00BD0EC0161E04CD0CE01992770D0B8
:0200F800F8CF3F
:0200FA00089567
:0200FC00089565
:0200FE00EBDF36
:02010000089560
:10010200CF93DF9380916300882341F07DD08A32C0
:1001120091F180916200DF91CF9108956AED79E0CB
:1001220080E0FDD02FE382E49FE0215080409040A8
:10013200E1F700C0000081E0E1D066D0C82F88233B
:10014200E1F3D0EDD80F60D0C817E9F35DD0882372
:10015200E9F39D2F990F292F220F220F920F90530F
:10016200890F80936200809163008F5F80936300A8
:100172004BD08A3271F681E0C1D010926300809137
:080182006200DF91CF910895A6
:10018A00CF93C82F662341F06130B1F0623089F015
:10019A008C2F90E0CF912CC140E086E390E0DDD037
:1001AA0040E061E086E390E0D8D08C2F90E0CF91D8
:1001BA001FC141E060E0F1CF40E060E086E390E0FB
:0E01CA00CCD041E061E086E390E0C7D0E1CF09
:1001D800CF93C82F6DEE79E080E09ED06C2F70E051
:1001E80080E090E011D180E886D083EC99E0019717
:0A01F800F1F700C00000CF91089558
:08020200F7D169D1C8D1DBC1BD
:10020A006F927F928F92CF92DF92EF92CF93DF938A
:10021A0022E0622E2AE0722E20E0822EC0E0D0E098
:10022A0082E0C82E8AE0D82E80E0E82E60E041E025
:10023A0080E390E092D02FEFC21AD20AE20A86E057
:10024A00C8168AE0D80680E0E80629F0F60164912B
:10025A00E7FC6081ECCF40E06C2F80E390E07DD03A
:10026A009EEFC92E99E0D92E90E0E92E64E0C0E015
:10027A0086E390E0FCD1882381F0CF5F8FEFC81A24
:10028A00D80AE80AC430D9F0F6016491E7FC608123
:10029A0086E390E0ECD18111F0CF8C2F90E024E03E
:1002AA00D29F800D911D1124092E000CAA0B8A5F82
:1002BA00954FAF4FFC018491A7FD808112C089EF51
:1002CA0090E00197F1F700C00000DF5F9FEF691A25
:1002DA00790A890AD43029F0F301C49187FCC081D4
:1002EA009FCFDF91CF91EF90DF90CF908F907F904B
:0402FA006F90089564
:1002FE00CF93C82F40E060E083E390E02CD08C2FAA
:10030E00F1D189EF90E00197F1F700C00000CF9195
:02031E00089540
:10032000CF92DF92EF926B01E82EFB018491E7FC04
:100330008081882399F09FEFC91AD90AE90A33D23C
:100340008FEFC81AD80AE80AAE2DC6010197A10995
:10035000FC018491A7FD80818111F1CFEF90DF90A6
:04036000CF9008959D
:100364000F931F93062F10E00830110548F4F8018D
:10037400EE5CFF4F27C2FC01228140FB27F9228358
:100384001F910F910895FC01228140FB26F92283DD
:100394001F910F910895FC01228140FB20F92283D3
:1003A4001F910F910895FC01228140FB21F92283C2
:1003B4001F910F910895FC01228140FB22F92283B1
:1003C4001F910F910895FC01228140FB23F92283A0
:1003D4001F910F910895FC01228140FB24F922838F
:1003E4001F910F910895FC01228140FB25F922837E
:0603F4001F910F91089516
:1003FA00853640F42FEF829FC001112464E670E035
:06040A00E4D16CBF08956F
:100410008F929F92AF92BF92CF92DF92EF92FF9214
:100420006B017C018AE0C816D104E104F10484F177
:1004300084E6C816D104E104F104C4F088EEC816BD
:1004400083E0D806E104F104ACF5C701B60124E667
:1004500030E040E050E0D1D1CA01B9012AE030E0FB
:1004600040E050E0CAD180E3860F9DD18AE0882E1B
:10047000912CA12CB12CC701B601A5019401BDD1CD
:10048000CA01B901A5019401B8D180E3860F8BD1CF
:10049000C701B6012AE030E040E050E0AED180E391
:1004A000860FFF90EF90DF90CF90BF90AF909F901E
:1004B0008F9079C1C701B60128EE33E040E050E0EB
:1004C0009CD1CA01B9012AE030E040E050E095D16A
:0804D00080E3860F68D1B9CF6B
:1004D800CF92DF92EF9241E061E083E390E09DD11B
:1004E80041E060E083E390E098D141E061E083E39C
:1004F80090E093D186E1C82E8AE0D82E80E0E82EDD
:1005080067E041E083E390E088D18FEFC81AD80A0A
:10051800E80A9AE1C9169AE0D90690E0E90629F0B6
:10052800F6016491E7FC6081ECCF40E060E083E392
:1005380090E014DF83E0DFDE87EE93E00197F1F7C8
:1005480000C0000083E0D7DE87EE93E00197F1F763
:1005580000C0000083E0CFDE87EE93E00197F1F75B
:1005680000C0000082E0C7DE88E2C5DE88E0C3DEA6
:1005780081E0C1DE86E0BFDE8CE0BDDE87E893E186
:100588000197F1F700C00000EF90DF90CF90089539
:1005980041E060E086E390E040D141E061E086E33D
:1005A80090E03BD140E060E086E390E0D7DE40E0B9
:0805B80061E086E390E0D2CE81
:1005C000CF93DF9300D00F92CDB7DEB741E063E069
:1005D00086E390E026D183E08A83898382E08B835F
:1005E000CE01019669D10F900F900F90DF91CF91BE
:0205F00008956C
:1005F2006F927F928F92CF92DF92EF92CF9382E0AF
:10060200682E8AE0782E80E0882E9EEFC92E99E02F
:10061200D92E90E0E92EC4E060E041E080E390E072
:10062200FFD041E06C2F86E390E09BDE40E06C2F30
:1006320086E390E0F5D08FEF681A780A880A8FEF88
:10064200C81AD80AE80A82E0C8168AE0D80680E00A
:10065200E80649F0F301649187FC6081F601C491D8
:10066200E7FCC081DACFCF91EF90DF90CF908F90EF
:060672007F906F900895D7
:10067800462F50E04830510548F4FA01E65CFF4F38
:100688009FC0FC01208125FB222720F9822F089595
:10069800FC01208126FB222720F9822F0895FC01E6
:1006A800208127FB222720F9822F0895FC01208131
:1006B8002170822F0895FC01208126952170822FB8
:1006C8000895FC01208122FB222720F9822F08951A
:1006D800FC01208123FB222720F9822F0895FC01A9
:0A06E800208122952170822F0895D1
:1006F200AF92BF92CF92DF92EF920F931F93CF935D
:10070200DF93082F10E097E0A92EB12C86E1C82EC6
:100712008AE0D82E80E0E82EE50167E0A8010C2EE1
:1007220002C0559547950A94E2F7417083E390E041
:1007320018DE21979FEFC91AD90AE90A8AE1C81679
:100742008AE0D80680E0E80629F0F6016491E7FC29
:100752006081E4CF94E0A91AB10841E061E083E34B
:1007620090E0FFDD89EF90E00197F1F700C0000013
:1007720040E061E083E390E0F4DD81EE94E00197F4
:10078200F1F700C000009FEFA916B90609F0BECF2D
:10079200DF91CF911F910F91EF90DF90CF90BF909B
:0407A200AF90089577
:1007A600CF93C82F41E060E083E390E0D8DD8C2F43
:1007B6009DDF89EF90E00197F1F700C00000CF912F
:0207C600089594
:0C07C800EE0FFF1F0590F491E02D099446
:1007D40097FB072E16F4009406D077FD08D0BCD002
:1007E40007FC05D03EF4909581959F4F0895709530
:0607F40061957F4F08959E
:1007FA00052E97FB16F40094C0D057FD05D0C5D03E
:10080A0007FC02D046F4B9C0509540953095219521
:08081A003F4F4F4F5F4F08955F
:100822000F931F93062F10E00830110548F4F801CA
:10083200E65DFF4FC8CFFC01218140FB27F92183F0
:100842001F910F910895FC01218140FB26F921831C
:100852001F910F910895FC01218140FB20F9218312
:100862001F910F910895FC01218140FB21F9218301
:100872001F910F910895FC01218140FB22F92183F0
:100882001F910F910895FC01218140FB23F92183DF
:100892001F910F910895FC01218140FB24F92183CE
:1008A2001F910F910895FC01218140FB25F92183BD
:0608B2001F910F91089553
:1008B800FC0183B7887F9081892B83BF8181813038
:1008C80009F441C0C8F1823091F0833031F483B724
:1008D800886083BF83B7806483BF8281813081F061
:1008E800813018F18230D1F0833089F0089583B7D0
:1008F800886083BF83B78F7B83BF8281813081F714
:1009080083B7806183BF83B78F7D83BF089583B723
:10091800806183BF83B7806283BF089583B78F7E6A
:1009280083BF83B7806283BF089583B78F7E83BFF9
:1009380083B78F7D83BF089583B7877F83BF83B7CE
:100948008F7B83BFCACF83B7877F83BF83B780641A
:0409580083BFC3CFC7
:10095C00AA1BBB1B51E107C0AA1FBB1FA617B707D9
:10096C0010F0A61BB70B881F991F5A95A9F78095F5
:08097C009095BC01CD01089526
:1009840090958095709561957F4F8F4F9F4F0895F7
:10099400A1E21A2EAA1BBB1BFD010DC0AA1FBB1F7F
:1009A400EE1FFF1FA217B307E407F50720F0A21BF1
:1009B400B30BE40BF50B661F771F881F991F1A945E
:1009C40069F760957095809590959B01AC01BD0188
:0409D400CF010895B2
:0209D80013CB3F
:1009DA00656E74657220647574792076616C7565CC
:1009EA003A2000647574792076616C7565206973A4
:0409FA00203A20007F
:0409FE0004050607DF
:040A020000010203EA
:100A06003738392F3435362A3132332D63303D2B82
:040A160007060504C6
:100A1A001F920F920FB60F9211242F933F934F9369
:100A2A005F936F937F938F939F93AF93BF93EF934C
:100A3A00FF93E0916000F0916100309709F0099509
:100A4A00FF91EF91BF91AF919F918F917F916F919C
:100A5A005F914F913F912F910F900FBE0F901F9072
:020A6A001895DD
:100A6C001F920F920FB60F9211242F933F934F9317
:100A7C005F936F937F938F939F93AF93BF93EF93FA
:100A8C00FF93E0916400F0916500309709F00995AF
:100A9C00FF91EF91BF91AF919F918F917F916F914A
:100AAC005F914F913F912F910F900FBE0F901F9020
:020ABC0018958B
:100ABE001F920F920FB60F9211242F933F934F93C5
:100ACE005F936F937F938F939F93AF93BF93EF93A8
:100ADE00FF93E0916600F0916700309709F0099559
:100AEE00FF91EF91BF91AF919F918F917F916F91F8
:100AFE005F914F913F912F910F900FBE0F901F90CE
:020B0E00189538
:00000001FF
