:100000000C9440000C9484020C9484020C9484029E
:100010000C9484020C9484020C9484020C94840248
:100020000C9484020C9484020C9484020C94840238
:100030000C9484020C9484020C9484020C94840228
:100040000C9484020C9484020C9484020C94840218
:100050000C948402EC01F201F801FE0104020A0290
:100060001002160281009D00B900D500F1000D01BB
:100070002901450161017D01006000640005160051
:1000800011241FBECFE5D8E0DEBFCDBFE8E7F0E02A
:1000900040E017C0B591A59135912591059107FDD7
:1000A0000CC095918591EF01F92FE82F05900D92E5
:1000B000A217B307D9F7FE0104C01D92A217B30718
:1000C000E1F7EF37F40731F70E9442020C94730214
:0400D000F894FFCFD2
:1000D400E82FA0916200B091630012968C91129760
:1000E4008F7D12968C9312974E2F50E04A30510513
:1000F40008F01CC1FA01EE5CFF4F0C947E021296CC
:100104008C9112978E7F12968C93129712968C91E3
:1001140012978D7F12968C93129712968C91129748
:100124008B7F12968C93129712968C9112978F7ED6
:1001340012968C93089512968C9112978160129660
:100144008C93129712968C9112978D7F12968C93A2
:10015400129712968C9112978B7F12968C9312970A
:1001640012968C9112978F7E12968C930895129604
:100174008C9112978E7F12968C93129712968C9173
:100184001297826012968C93129712968C91129702
:100194008B7F12968C93129712968C9112978F7E66
:1001A40012968C93089512968C91129781601296F0
:1001B4008C93129712968C911297826012968C935C
:1001C400129712968C9112978B7F12968C9312979A
:1001D40012968C9112978F7E12968C930895129694
:1001E4008C9112978E7F12968C93129712968C9103
:1001F40012978D7F12968C93129712968C91129768
:10020400846012968C93129712968C9112978F7E1B
:1002140012968C93089512968C911297816012967F
:100224008C93129712968C9112978D7F12968C93C1
:10023400129712968C911297846012968C9312974F
:1002440012968C9112978F7E12968C930895129623
:100254008C9112978E7F12968C93129712968C9192
:100264001297826012968C93129712968C91129721
:10027400846012968C93129712968C9112978F7EAB
:1002840012968C93089512968C911297816012960F
:100294008C93129712968C911297826012968C937B
:1002A400129712968C911297846012968C931297DF
:1002B40012968C9112978F7E12968C9308951296B3
:1002C4008C9112978E7F12968C93129712968C9122
:1002D40012978D7F12968C93129712968C91129787
:1002E4008B7F12968C93129712968C911297806141
:1002F40012968C93089512968C911297816012969F
:100304008C93129712968C9112978D7F12968C93E0
:10031400129712968C9112978B7F12968C93129748
:0E03240012968C911297806112968C93089518
:10033200CF93DF93CDEC8C9FD12D11249D2F9695D9
:1003420096959695990F292F220F220F920FD695E7
:10035200D695D695E0916200F091630022812064E7
:10036200228322812F7D2283891B0E946A0083ECD3
:1003720099E00197F1F700C00000DC9FC12D112424
:10038200C695C695C695CC0F8C2F880F880FC80FBF
:10039200E0916200F091630082818F7B828382818F
:1003A200806282838D2F8C1B0E946A0083EC99E00D
:0E03B2000197F1F700C00000DF91CF91089590
:1003C0000F931F93062F10E008301105A0F5F801D8
:1003D000E65DFF4F0C947E02FC01218140FB20F979
:1003E000218329C0FC01218140FB21F9218323C005
:1003F000FC01218140FB22F921831DC0FC012181E8
:1004000040FB23F9218317C0FC01218140FB24F923
:10041000218311C0FC01218140FB25F921830BC000
:10042000FC01218140FB26F9218305C0FC012181CB
:0C04300040FB27F921831F910F910895D4
:10043C00E0916200F0916300818181608183E091A1
:10044C006200F0916300818182608183E09162009F
:10045C00F0916300818184608183E0916200F0916E
:10046C006300818180618183E0916200F09163007F
:08047C008181806281830895F3
:100484000E945B020E941E0240E050E060E070E0C7
:1004940080916000909161000E94E0010E946802D6
:1004A4000E94990183EC99E00197F1F700C00000E4
:0204B400F5CF82
:1004B60087B1806487B986B1806886B986B1816064
:0A04C60086B986B1826086B90895F8
:1004D00087B1806487B93E9903C085B190E00895E3
:0604E00080E090E00895A9
:1004E600EC010E9489020E948802CE010E948A02C3
:0604F600CE010E94860207
:0C04FC00EE0FFF1F0590F491E02D099415
:040508000C9400004F
:04050C000E946800E1
:0205100008954C
:0205120008954A
:02051400089548
:020516003900AA
:020518003600AB
:00000001FF
