:100000000C942A000C9441000C9441000C94410083
:100010000C9441000C9441000C9441000C9441005C
:100020000C9441000C9441000C9441000C9441004C
:100030000C9441000C9441000C9441000C9441003C
:100040000C9441000C9441000C9441000C9441002C
:100050000C94410011241FBECFE5D8E0DEBFCDBF18
:0C0060000E9445000C943600F894FFCF7D
:10006C00EC010E9447000E944600CE010E9448000D
:06007C00CE010E944300CA
:040082000C940000DA
:040086000E943400A0
:02008A00FFCFA6
:02008C000895D5
:02008E000895D3
:020090000895D1
:00000001FF
