:1000000047C00000BEC20000BCC20000BAC200006F
:10001000B8C20000B6C20000B4C20000B2C2000004
:10002000B0C20000AEC2000046C400001BC4000005
:10003000A8C20000A6C20000A4C20000A2C2000024
:10004000A0C200009EC200009CC200009AC2000034
:1000500098C20000D501DD01E501ED01F501FD01CA
:10006000CD01C501200228023002380240024802B8
:1000700018021002130418041E0425042C04FE03A5
:1000800005040C0400600066000908006600718029
:1000900011241FBECFE5D8E0DEBFCDBFE4E8F0E01D
:1000A00040E017C0B591A59135912591059107FDC7
:1000B0000CC095918591EF01F92FE82F05900D92D5
:1000C000A217B307D9F7FE0104C01D92A217B30708
:1000D000E1F7E039F40731F70AD002C0F894FFCF16
:0E00E000EC010BD007D0CE0106D0CE0105D02A
:0600EE002ED005D0FECF6C
:0200F40008956D
:0200F60008956B
:0200F800F1DF36
:0200FA00089567
:1000FC0080916800813089F0809169008130C1F075
:10010C0080916700813009F00895E0916400F091CE
:10011C0065000995109267000895E0916200F091D6
:10012C00630009951092680080916900813041F755
:10013C00E0916000F0916100099510926900E0CFA8
:10014C00CF93DF9300D000D0CDB7DEB7ADD01CD0AD
:10015C0082E08A8385E0898389EF18D0CE010196ED
:10016C0017D068D081E08C83CE0104967CD0BE0180
:10017C006C5F7F4F87E793E085D00F900F900F90C7
:08018C000F90DF91CF9108955F
:0401940078940895BE
:040198008CBF08957B
:10019C00FC0183B7887F9081892B83BF818181305B
:1001AC0009F441C0C8F1823091F0833031F483B747
:1001BC00886083BF83B7806483BF8281813081F084
:1001CC00813018F18230D1F0833089F0089583B7F3
:1001DC00886083BF83B78F7B83BF8281813081F737
:1001EC0083B7806183BF83B78F7D83BF089583B747
:1001FC00806183BF83B7806283BF089583B78F7E8E
:10020C0083BF83B7806283BF089583B78F7E83BF1C
:10021C0083B78F7D83BF089583B7877F83BF83B7F1
:10022C008F7B83BFCACF83B7877F83BF83B780643D
:04023C0083BFC3CFEA
:1002400041E064E089E390E095D041E065E089E336
:1002500090E090D041E067E089E390E08BD040E00F
:1002600061E089E390E086D041E061E089E390E0DD
:02027000CCC000
:10027200FC018081882339F0813021F489B78260C2
:0E02820089BF0895089589B7816089BF0895E6
:100290009C01FB019081992341F0913029F4309326
:1002A000700020936F000895089530936E0020939E
:0402B0006D00089540
:1002B400CF92DF92EF9241E061E083E390E058D087
:1002C40041E060E083E390E053D041E061E083E308
:1002D40090E04ED08AEEC82E86E0D82E80E0E82E3C
:1002E40067E041E083E390E043D08FEFC81AD80A77
:1002F400E80A9EEEC91696E0D90690E0E90629F0D0
:10030400F6016491E7FC6081ECCF40E060E083E3B8
:1003140090E079D083E0C2D087EE93E00197F1F7C3
:1003240000C0000083E0BAD087EE93E00197F1F7B4
:1003340000C0000083E0B2D087EE93E00197F1F7AC
:1003440000C0000082E0AAD088E2A8D088E0A6D04D
:1003540081E0A4D086E0A2D08CE0A0D087E893E12D
:100364000197F1F700C00000EF90DF90CF9008955F
:100374000F931F93062F10E00830110548F4F8017D
:10038400E65DFF4F9CC0FC01218140FB27F92183DE
:100394001F910F910895FC01218140FB26F92183CF
:1003A4001F910F910895FC01218140FB20F92183C5
:1003B4001F910F910895FC01218140FB21F92183B4
:1003C4001F910F910895FC01218140FB22F92183A3
:1003D4001F910F910895FC01218140FB23F9218392
:1003E4001F910F910895FC01218140FB24F9218381
:1003F4001F910F910895FC01218140FB25F9218370
:060404001F910F91089505
:10040A000F931F93062F10E00830110548F4F801E6
:10041A00EE5CFF4F51C0FC01228140FB27F9228389
:10042A001F910F910895FC01228140FB26F9228336
:10043A001F910F910895FC01228140FB20F922832C
:10044A001F910F910895FC01228140FB21F922831B
:10045A001F910F910895FC01228140FB22F922830A
:10046A001F910F910895FC01228140FB23F92283F9
:10047A001F910F910895FC01228140FB24F92283E8
:10048A001F910F910895FC01228140FB25F92283D7
:06049A001F910F9108956F
:1004A000CF93C82F40E060E083E390E0AEDF8C2F75
:1004B0000ED089EF90E00197F1F700C00000CF91D6
:0204C00008959D
:0C04C200EE0FFF1F0590F491E02D09944F
:1004CE00AF92BF92CF92DF92EF920F931F93CF9383
:1004DE00DF93082F10E097E0A92EB12C8AEEC82EDC
:1004EE0086E0D82E80E0E82EE50167E0A8010C2E0C
:1004FE0002C0559547950A94E2F7417083E390E068
:10050E007DDF21979FEFC91AD90AE90A8EEEC81628
:10051E0086E0D80680E0E80629F0F6016491E7FC53
:10052E006081E4CF94E0A91AB10841E061E083E371
:10053E0090E064DF89EF90E00197F1F700C00000D2
:10054E0040E061E083E390E059DF81EE94E00197B3
:10055E00F1F700C000009FEFA916B90609F0BECF53
:10056E00DF91CF911F910F91EF90DF90CF90BF90C1
:04057E00AF9008959D
:020582003ECD6C
:10058400CF93C82F41E060E083E390E03CDF8C2F01
:100594009CDF89EF90E00197F1F700C00000CF9154
:0205A4000895B8
:1005A6008F929F92AF92BF92CF92DF92EF92FF927D
:1005B6006B017C018AE0C816D104E104F10484F1E0
:1005C60084E6C816D104E104F104C4F088EEC81626
:1005D60083E0D806E104F104ACF5C701B60124E6D0
:1005E60030E040E050E040D0CA01B9012AE030E0F6
:1005F60040E050E039D080E3860FC1DF8AE0882EE4
:10060600912CA12CB12CC701B601A50194012CD0C7
:10061600CA01B901A501940127D080E3860FAFDF97
:10062600C701B6012AE030E040E050E01DD080E38B
:10063600860FFF90EF90DF90CF90BF90AF909F9086
:100646008F909DCFC701B60128EE33E040E050E021
:100656000BD0CA01B9012AE030E040E050E004D0F6
:0806660080E3860F8CDFB9CFA1
:10066E00052E97FB16F400940FD057FD05D014D02D
:10067E0007FC02D046F408C0509540953095219560
:08068E003F4F4F4F5F4F0895ED
:1006960090958095709561957F4F8F4F9F4F0895E8
:1006A600A1E21A2EAA1BBB1BFD010DC0AA1FBB1F70
:1006B600EE1FFF1FA217B307E407F50720F0A21BE2
:1006C600B30BE40BF50B661F771F881F991F1A944F
:1006D60069F760957095809590959B01AC01BD0179
:0406E600CF010895A3
:0406EA0007060504F6
:1006EE0080916B0090916C00019690936C008093BA
:1006FE006B0080916B0090916C004F9749F1909137
:10070E006A008BEA989F812D112486958695282F55
:10071E00220F820F880F981304C080916A008111F6
:10072E0013C080916A0080FD07C080916A00882303
:10073E0019F081E08093690080916A00873009F09A
:10074E00089510926A00089581E080936700E9CFC2
:10075E0080916A008F5F80936A0010926C001092F5
:0A076E006B0081E080936800CACFA1
:1007780041E067E089E390E044DE81EF9BE2019786
:10078800F1F700C0000040E067E089E390E039CE6F
:1007980041E064E089E390E034DE81EF9BE2019779
:1007A800F1F700C0000040E064E089E390E029CE62
:1007B80061E089E390E015D08111089541E08091CE
:1007C800660081110CC04093660065E089E390E003
:1007D80018DE6091660070E080E090E0E0CE40E0D6
:0207E800F2CF4E
:1007EA00462F50E04830510548F4FA01E65CFF4FC5
:1007FA0063CEFC01208125FB222720F9822F089550
:10080A00FC01208126FB222720F9822F0895FC0172
:10081A00208127FB222720F9822F0895FC012081BD
:10082A002170822F0895FC01208126952170822F44
:10083A000895FC01208122FB222720F9822F0895A6
:10084A00FC01208123FB222720F9822F0895FC0135
:0A085A00208122952170822F08955D
:100864001F920F920FB60F9211242F933F934F9321
:100874005F936F937F938F939F93AF93BF93EF9304
:10088400FF93E0916D00F0916E00309709F00995A7
:10089400FF91EF91BF91AF919F918F917F916F9154
:1008A4005F914F913F912F910F900FBE0F901F902A
:0208B400189595
:1008B6001F920F920FB60F9211242F933F934F93CF
:1008C6005F936F937F938F939F93AF93BF93EF93B2
:1008D600FF93E0916F00F0917000309709F0099551
:1008E600FF91EF91BF91AF919F918F917F916F9102
:1008F6005F914F913F912F910F900FBE0F901F90D8
:02090600189542
:06090800BC03DC03CC037C
:00000001FF
