:100000000C9438000C9486010C9486010C948601A3
:100010000C9486010C9486010C9486010C94860144
:100020000C9486010C9486010C9486010C94860134
:100030000C9486010C9486010C9486010C94860124
:100040000C9486010C9486010C9486010C94860114
:100050000C948601020109011101190121012901F4
:1000600031013901410149010060006400031A00B7
:1000700011241FBECFE5D8E0DEBFCDBFE8E6F0E03B
:1000800040E017C0B591A59135912591059107FDE7
:100090000CC095918591EF01F92FE82F05900D92F5
:1000A000A217B307D9F7FE0104C01D92A217B30728
:1000B000E1F7EF36F40731F70E946F010C94640109
:0400C000F894FFCFE2
:1000C40082B38F7782BB82B3806482BB82B3806247
:1000D40082BB82B3886082BB9D9B5CC09C9B5CC0DE
:1000E4009B9B5CC09A9B5CC089EF90E00197F1F701
:1000F40000C0000082B3806882BB82B38F7B82BB66
:1001040082B3806282BB82B3886082BB9D9B4AC0FB
:100114009C9B4AC09B9B4AC09A9B4AC089EF90E033
:100124000197F1F700C0000082B3806882BB82B3FC
:10013400806482BB82B38F7D82BB82B3886082BBC2
:100144009D9B38C09C9B38C09B9B38C09A9B38C0F1
:1001540089EF90E00197F1F700C0000082B3806856
:1001640082BB82B3806482BB82B3806282BB82B36F
:10017400877F82BB9D9B26C09C9B26C09B9B26C0E1
:100184009A9B26C089EF90E00197F1F700C0000028
:1001940080E0089587E3089584E3089581E3089552
:1001A40083E6089588E3089585E3089582E3089536
:1001B40080E3089589E3089586E3089583E3089529
:1001C4008DE308958CE508958AE208958DE20895FB
:0401D4008BE208951D
:1001D800E82FA0916000B091610012968C9112975F
:1001E8008B7F12968C938E2F90E08A30910508F0C1
:1001F80053C0FC01E65DFF4F0C948001E091620062
:10020800F0916300828182830895E0916200F09109
:1002180063008281816082830895E0916200F09199
:1002280063008281826082830895E0916200F09188
:1002380063008281836082830895E0916200F09177
:1002480063008281846082830895E0916200F09166
:1002580063008281856082830895E0916200F09155
:1002680063008281866082830895E0916200F09144
:1002780063008281876082830895E0916200F09133
:1002880063008281886082830895E0916200F09122
:0A029800630082818960828308956B
:1002A200E0916200F091630087E18183E091600058
:1002B200F0916100818184608183E0916200F0911C
:0602C200630012820895A2
:1002C800EC010E948B010E948A01CE010E948C01E0
:0602D800CE010E94880126
:1002DE000E9451010E9479010E94620080530E9487
:0402EE00EC00FACF57
:0E02F20088EE81BB82BB14BA8FEF85BB0895E6
:0C030000EE0FFF1F0590F491E02D099412
:04030C000C9400004D
:040310000E946000E7
:0203140008954A
:02031600089548
:02031800089546
:02031A003900A8
:02031C003600A9
:00000001FF
