:100000000C943D000C9424040C9424040C942404BB
:100010000C9424040C9424040C9424040C946C027A
:100020000C9443020C941A020C9424040C9424049F
:100030000C9424040C9424040C9424040C942404A0
:100040000C9424040C9424040C9424040C94240490
:100050000C942404AA01B001B601BC01C201C8017C
:10006000CE01D401E801EE01F401FA01000206021A
:100070000C0212020060006B800011241FBECFE54D
:10008000D8E0DEBFCDBFE4E7F0E040E017C0B591B7
:10009000A59135912591059107FD0CC0959185910C
:1000A000EF01F92FE82F05900D92A217B307D9F7AA
:1000B000FE0104C01D92A217B307E1F7E937F40768
:0E00C00031F70E94B8030C94F703F894FFCFB9
:0E00CE0064697374616E63652069733A200083
:0400DC00070605040A
:1000E0008F929F92AF92BF92CF92DF92EF92FF9248
:1000F0006B017C018AE0C816D104E104F1040CF420
:100100004CC084E6C816D104E104F1047CF188EE09
:10011000C81683E0D806E104F104A4F0C701B601D3
:1001200028EE33E040E050E00E947B03CA01B901B1
:100130002AE030E040E050E00E947B0380E3860F3D
:100140000E949203C701B60124E630E040E050E08F
:100150000E947B03CA01B9012AE030E040E050E090
:100160000E947B0380E3860F0E9492030F2EFAE029
:100170008F2E912CA12CB12CF02DC701B601A50119
:1001800094010E947B03CA01B901A50194010E9458
:100190007B0380E3860F0E949203C701B6012AE029
:1001A00030E040E050E00E947B0380E3860F0E9435
:1001B0009203FF90EF90DF90CF90BF90AF909F9011
:0401C0008F9008957F
:1001C400CF93DF9341E061E083E390E00E949E01DE
:1001D40041E060E083E390E00E949E0141E061E041
:1001E40083E390E00E949E01C0E0D0E011C0CE0104
:1001F4000D2E000CAA0B84529F4FAF4FFC0164914B
:10020400A7FD608141E083E390E00E949E01219676
:10021400C430D10564F340E060E083E390E00E94E1
:10022400DC0183E00E94A50387EE93E00197F1F7D8
:1002340000C0000083E00E94A50387EE93E00197CD
:10024400F1F700C0000083E00E94A50387EE93E06D
:100254000197F1F700C0000082E00E94A50388E244
:100264000E94A50388E00E94A50381E00E94A503E3
:1002740086E00E94A5038CE00E94A50387E893E131
:0E0284000197F1F700C00000DF91CF910895BF
:10029200DF92EF92FF920F931F93CF93DF93D82EAB
:1002A200E12CF12C07E010E03CC04D2D50E0002E77
:1002B20002C0559547950A94E2F74170CE010D2E82
:1002C200000CAA0B84529F4FAF4FFC016491A7FD13
:1002D200608183E390E00E94DC01015011092196C4
:1002E20002C0C0E0D0E0C430D105FCF241E061E0E0
:1002F20083E390E00E94DC0189EF90E00197F1F73F
:1003020000C0000040E061E083E390E00E94DC0175
:1003120081EE94E00197F1F700C000009FEFE91A27
:10032200F90A82E0E816F104E4F2DF91CF911F911D
:0A0332000F91FF90EF90DF90089507
:10033C000F931F93062F10E008301105A0F5F8015C
:10034C00E65DFF4F0C941404FC01218140FB20F965
:10035C00218329C0FC01218140FB21F9218323C089
:10036C00FC01218140FB22F921831DC0FC0121816C
:10037C0040FB23F9218317C0FC01218140FB24F9A8
:10038C00218311C0FC01218140FB25F921830BC085
:10039C00FC01218140FB26F9218305C0FC01218150
:0C03AC0040FB27F921831F910F91089559
:1003B8000F931F93062F10E008301105A0F5F801E0
:1003C800EE5CFF4F0C941404FC01228140FB20F9E1
:1003D800228329C0FC01228140FB21F9228323C00A
:1003E800FC01228140FB22F922831DC0FC012281ED
:1003F80040FB23F9228317C0FC01228140FB24F92A
:10040800228311C0FC01228140FB25F922830BC005
:10041800FC01228140FB26F9228305C0FC012281D0
:0C04280040FB27F922831F910F910895DB
:100434001F920F920FB60F9211242F933F934F9355
:100444005F936F937F938F939F93AF93BF93EF9338
:10045400FF93E0916000F0916100309709F00995F5
:10046400FF91EF91BF91AF919F918F917F916F9188
:100474005F914F913F912F910F900FBE0F901F905E
:020484001895C9
:100486001F920F920FB60F9211242F933F934F9303
:100496005F936F937F938F939F93AF93BF93EF93E6
:1004A600FF93E0916200F0916300309709F009959F
:1004B600FF91EF91BF91AF919F918F917F916F9136
:1004C6005F914F913F912F910F900FBE0F901F900C
:0204D600189577
:1004D8001F920F920FB60F9211242F933F934F93B1
:1004E8005F936F937F938F939F93AF93BF93EF9394
:1004F800FF93E0916400F0916500309709F0099549
:10050800FF91EF91BF91AF919F918F917F916F91E3
:100518005F914F913F912F910F900FBE0F901F90B9
:02052800189524
:10052A00CF93DF9300D0CDB7DEB741E067E089E330
:10053A0090E00E949E0181E0898382E08A83CE0155
:10054A0001960E94640383E090E00E944C0363E0FA
:10055A0070E089EF92E00E9418030F900F90DF91EC
:04056A00CF91089590
:10056E00A1E21A2EAA1BBB1BFD010DC0AA1FBB1FA9
:10057E00EE1FFF1FA217B307E407F50720F0A21B1B
:10058E00B30BE40BF50B661F771F881F991F1A9488
:10059E0069F760957095809590959B01AC01BD01B2
:0405AE00CF010895DC
:1005B200CF92DF92EF92CF93DF936B01E82EC0E0F0
:1005C200D0E003C00E9492032196AE2DC6018C0F8B
:1005D2009D1FA11DD7FDAA95FC018491A7FD8081D5
:1005E2008111F0CFDF91CF91EF90DF90CF900895FE
:1005F20080916A008F5F80936A0080916A008130E7
:1006020039F40E941E0480E090E00E9402040895E2
:1006120080916A00823051F40E9421049093690013
:0E0622008093680081E090E00E940204089539
:10063000613059F028F0623069F0633081F008953C
:10064000909361008093600008959093630080937D
:1006500062000895909365008093640008959093DC
:08066000670080936600089515
:100668000E94CA0380916A00823010F010926A00DA
:100678002091680030916900AFE9B6E40E94DB037D
:10068800929582958F7089279F7089270196089582
:10069800813051F028F0823059F0833069F00895A4
:1006A80089B7816089BF089589B7886089BF08952F
:1006B80089B7806189BF089589B7806289BF089525
:1006C800FC011DBC1CBC17BC16BC8CE08FBD4EB514
:1006D800908180E4989F90011124942F9778292B7A
:0E06E8002EBD8EB59181887F892B8EBD089521
:1006F600052E97FB1EF400940E940C0457FD07D0AC
:100706000E94B70207FC03D04EF40C940C045095DB
:0E0716004095309521953F4F4F4F5F4F08950E
:10072400CF93C82F41E060E083E390E00E94DC01B6
:100734008C2F0E94490189EF90E00197F1F700C0E6
:060744000000CF910895B2
:10074A00CF93C82F40E060E083E390E00E94DC0191
:10075A008C2F0E94490189EF90E00197F1F700C0C0
:06076A000000CF9108958C
:100770000E94EA036EEC70E080E00E94D9020E94C1
:100780003403BC0180E090E00E94700080E80E9489
:04079000A503F0CFFE
:1007940041E067E089E390E00E94DC0183E08A9510
:1007A400F1F7000040E067E089E390E00E94DC019B
:0207B4000895A6
:1007B600A29FB001B39FC001A39F700D811D11249C
:0E07C600911DB29F700D811D1124911D08958B
:1007D4000E94E20040E066E080E390E00E949E0117
:0A07E4000E9495020E941A04089575
:1007EE00EC010E9429040E942804CE010E942A04D2
:0607FE00CE010E9426045A
:10080400813021F48EB580648EBD08958EB58F7BC2
:040814008EBD0895F8
:1008180090958095709561957F4F8F4F9F4F089564
:0C082800EE0FFF1F0590F491E02D0994E5
:080834008FB780688FBF0895A3
:06083C001DBC1CBC089568
:0608420086B597B508958C
:040848000C9400000C
:04084C000E946500A1
:02085000089509
:02085200089507
:02085400089505
:00000001FF
