:100000000C943D000C9442010C946B010C949401EF
:100010000C94FB010C94FB010C94FB010C94FB0170
:100020000C94FB010C94FB010C94FB010C94FB0160
:100030000C94FB010C94FB010C94FB010C94FB0150
:100040000C94FB010C94FB010C94FB010C94FB0140
:100050000C94FB01730079007F0085008B009100F8
:1000600097009D00B100B700BD00C300C900CF00DC
:10007000D500DB0000600066800011241FBECFE5C4
:10008000D8E0DEBFCDBFE4E7F0E040E017C0B591B7
:10009000A59135912591059107FD0CC0959185910C
:1000A000EF01F92FE82F05900D92A217B307D9F7AA
:1000B000FE0104C01D92A217B307E1F7E937F40768
:0E00C00031F70E9415010C94E601F894FFCF71
:1000CE000F931F93062F10E008301105A0F5F801CD
:1000DE00E65DFF4F0C94F101FC01218140FB20F9FC
:1000EE00218329C0FC01218140FB21F9218323C0FA
:1000FE00FC01218140FB22F921831DC0FC012181DD
:10010E0040FB23F9218317C0FC01218140FB24F918
:10011E00218311C0FC01218140FB25F921830BC0F5
:10012E00FC01218140FB26F9218305C0FC012181C0
:0C013E0040FB27F921831F910F910895C9
:10014A000F931F93062F10E008301105A0F5F80150
:10015A00EE5CFF4F0C94F101FC01228140FB20F977
:10016A00228329C0FC01228140FB21F9228323C07A
:10017A00FC01228140FB22F922831DC0FC0122815D
:10018A0040FB23F9228317C0FC01228140FB24F99A
:10019A00228311C0FC01228140FB25F922830BC076
:1001AA00FC01228140FB26F9228305C0FC01228141
:0C01BA0040FB27F922831F910F9108954C
:1001C6009BEF980F933058F49BB721E030E0082E50
:1001D60002C0220F331F0A94E2F7292B2BBF863069
:1001E60029F0873049F08530E1F412C085B78C7F5D
:1001F60085BF85B7862B85BF85B7837F85BF25B726
:10020600862F90E0880F991F880F991F822B85BF34
:10021600623021F484B78F7B84BF089584B78064ED
:0402260084BF0895F4
:10022A000E94F70141E067E086E390E00E946700E0
:10023A0040E062E080E390E00E94670061E086E0CF
:10024A000E94E30060E08DEB91E00E94D30141E05F
:10025A0062E080E390E00E94A5002FE38DE093E046
:10026A00215080409040E1F700C0000040E062E089
:0A027A0080E390E00E94A500EACFA7
:100284001F920F920FB60F9211242F933F934F9307
:100294005F936F937F938F939F93AF93BF93EF93EA
:1002A400FF93E0916000F0916100309709F00995A7
:1002B400FF91EF91BF91AF919F918F917F916F913A
:1002C4005F914F913F912F910F900FBE0F901F9010
:0202D40018957B
:1002D6001F920F920FB60F9211242F933F934F93B5
:1002E6005F936F937F938F939F93AF93BF93EF9398
:1002F600FF93E0916200F0916300309709F0099551
:10030600FF91EF91BF91AF919F918F917F916F91E7
:100316005F914F913F912F910F900FBE0F901F90BD
:02032600189528
:100328001F920F920FB60F9211242F933F934F9362
:100338005F936F937F938F939F93AF93BF93EF9345
:10034800FF93E0916400F0916500309709F00995FA
:10035800FF91EF91BF91AF919F918F917F916F9195
:100368005F914F913F912F910F900FBE0F901F906B
:020378001895D6
:10037A0041E067E086E390E00E94A5002FE38DE06C
:10038A0093E0215080409040E1F700C0000040E037
:0C039A0067E086E390E00E94A500089553
:1003A600613041F018F0623049F008959093610091
:1003B6008093600090936300809362009093650041
:0603C6008093640008951D
:1003CC00EC010E9400020E94FF01CE010E9401027A
:0603DC00CE010E94FD01AC
:0C03E200EE0FFF1F0590F491E02D099430
:0803EE008FB780688FBF0895EE
:0403F6000C94000063
:0403FA000E946500F8
:0203FE00089560
:0204000008955D
:0204020008955B
:00000001FF
