:100000004BC0000054C3000052C3000050C30000A6
:100010004EC300004CC300004AC3000048C30000A8
:1000200046C3000044C3000042C3000040C30000B8
:100030003EC300003CC300003AC3000038C30000C8
:1000400036C3000034C3000032C3000030C30000D8
:100050002EC30000B302BB02C302CB02D302DB02F9
:10006000AB02A3026802700278028002880290024A
:10007000600258022E02330239024002470219027E
:10008000200227021103250327032E033503410312
:1000900043034F03FB020F0311241FBECFE5D8E03B
:0C00A000DEBFCDBF0AD002C0F894FFCF35
:0E00AC00EC011BD017D0CE0116D0CE0115D01E
:1000BA0076D18FD014D0C82F8823E1F390E0C0976F
:1000CA00C6D00DD0C817E9F389EF90E00197F1F790
:0600DA0000C00000EFCFA2
:0200E000089581
:0200E20008957F
:0200E400E1DF5A
:0200E60008957B
:1000E8006F927F928F92CF92DF92EF92CF93DF93AE
:1000F80024EB622E26E0722E20E0822EC5E0D0E0AE
:1001080084EBC82E86E0D82E80E0E82E65E041E03A
:1001180083E390E0BED12FEFC21AD20AE20A88EB3D
:10012800C81686E0D80680E0E80629F0F601649152
:10013800E7FC6081ECCF40E06C2F83E390E0A9D12D
:1001480090EBC92E96E0D92E90E0E92E67E0C0E04A
:1001580080E390E061D1882381F0CF5F8FEFC81AE8
:10016800D80AE80AC430D9F0F6016491E7FC608146
:1001780080E390E051D18111F0CF8C2F90E024E002
:10018800D29F800D911D1124092E000CAA0B8854B2
:10019800994FAF4FFC018491A7FD808112C089EF70
:1001A80090E00197F1F700C00000DF5F9FEF691A48
:1001B800790A890AD43029F0F301C49187FCC081F7
:1001C8009FCFDF91CF91EF90DF90CF908F907F906E
:0401D8006F90089587
:1001DC006F927F928F92CF92DF92EF92CF9384EBBC
:1001EC00682E86E0782E80E0882E90EBC92E96E063
:1001FC00D92E90E0E92EC7E065E041E083E390E082
:10020C0091D140E06C2F80E390E08CD18FEF681A95
:10021C00780A880A8FEFC81AD80AE80A84EBC8163D
:10022C0086E0D80680E0E80649F0F301649187FC8B
:10023C006081F601C491E7FCC081DFCFCF91EF90D4
:0C024C00DF90CF908F907F906F9008950E
:100258000F931F93CF93DF93EC0141E063E089E3B1
:1002680090E017D140E066E086E390E012D19E016D
:10027800369527953695279536952795A5ECB0E2BE
:100288009ED1AC01529542954F7045275F70452726
:100298009A01ADECBCEC93D1969587959695879588
:1002A80096958795342F2AE0829F30191124832F41
:1002B80095D185ED96E00197F1F700C0000041E087
:1002C80066E086E390E0E5D040E065E086E390E014
:1002D800E0D09E013695279536952795ABE7B4E192
:1002E8006ED1AC01569547959A01ADECBCEC67D13F
:1002F800969587959695879596958795342F2AE0B4
:10030800829F30191124832F69D185ED96E00197DA
:10031800F1F700C0000041E065E086E390E0B9D065
:1003280040E062E089E390E0B4D09E01ADECBCEC23
:1003380046D18C011695079516950795169507953C
:1003480098013DD196958795969587959695879529
:10035800302F2AE0829F30191124832F3FD185ED59
:1003680096E00197F1F700C0000041E062E089E300
:1003780090E08FD040E063E089E390E08AD08C2F52
:100388009AE0099F8019112429D185ED96E00197FB
:10039800F1F700C00000DF91CF911F910F910895F0
:1003A80041E066E086E390E0BFD041E065E086E3A7
:1003B80090E0BAD041E062E089E390E0B5D041E056
:1003C80063E089E390E0B0D041E066E086E390E046
:1003D80060D041E065E086E390E05BD041E062E018
:1003E80089E390E056D041E063E089E390E051D0A2
:1003F80041E060E086E390E097D041E061E086E389
:1004080090E092D041E062E086E390E08DD041E058
:0804180064E086E390E088C077
:10042000462F50E04830510548F4FA01E65CFF4F92
:1004300038C1FC01208125FB222720F9822F089555
:10044000FC01208126FB222720F9822F0895FC0140
:10045000208127FB222720F9822F0895FC0120818B
:100460002170822F0895FC01208126952170822F12
:100470000895FC01208122FB222720F9822F089574
:10048000FC01208123FB222720F9822F0895FC0103
:0A049000208122952170822F08952B
:10049A000F931F93062F10E00830110548F4F80156
:1004AA00EE5CFF4FF9C0FC01228140FB27F9228351
:1004BA001F910F910895FC01228140FB26F92283A6
:1004CA001F910F910895FC01228140FB20F922839C
:1004DA001F910F910895FC01228140FB21F922838B
:1004EA001F910F910895FC01228140FB22F922837A
:1004FA001F910F910895FC01228140FB23F9228369
:10050A001F910F910895FC01228140FB24F9228357
:10051A001F910F910895FC01228140FB25F9228346
:06052A001F910F910895DE
:100530000F931F93062F10E00830110548F4F801BF
:10054000E65DFF4FAEC0FC01218140FB27F921830E
:100550001F910F910895FC01218140FB26F9218311
:100560001F910F910895FC01218140FB20F9218307
:100570001F910F910895FC01218140FB21F92183F6
:100580001F910F910895FC01218140FB22F92183E5
:100590001F910F910895FC01218140FB23F92183D4
:1005A0001F910F910895FC01218140FB24F92183C3
:1005B0001F910F910895FC01218140FB25F92183B2
:0605C0001F910F91089548
:1005C600A29FB001B39FC001A39F700D811D11248E
:0E05D600911DB29F700D811D1124911D08957D
:1005E40090E08A30910508F00895FC01EE5BFF4F1E
:1005F40056C040E060E086E390E04DDF40E061E01B
:1006040086E390E048DF40E062E086E390E043DF89
:1006140041E064E086E390E03ECF41E0EBCF40E090
:1006240060E086E390E037DF40E061E086E390E05D
:1006340032DF40E062E086E390E02DDF40E064E0FA
:1006440086E390E028CF41E0EBCF40E060E086E332
:1006540090E021DF41E0E9CF41E060E086E390E013
:100664001ADF41E0E2CF40E060E086E390E013DF90
:1006740040E061E086E390E00EDF41E0DBCF41E063
:10068400F3CF40E060E086E390E005DF41E061E025
:0E06940086E390E000DF41E0CDCF41E0F3CF00
:0C06A200EE0FFF1F0590F491E02D09946D
:0206AE00A8CCD6
:0406B0000706050331
:0406B4000504030234
:1006B80030313233343536373839303131333435F7
:00000001FF
