:100000003CC000006EC1000095C10000BCC10000F2
:1000100062C1000060C100005EC100005CC1000060
:100020005AC1000058C1000056C1000054C1000070
:1000300052C1000050C100004EC100004CC1000080
:100040004AC1000048C1000046C1000044C1000090
:1000500042C10000A300AB00B300BB00C300CB0053
:100060009B00930033013B0143014B0153015B01B2
:100070002B01230100600066800011241FBECFE524
:10008000D8E0DEBFCDBFE4E7F0E040E017C0B591B7
:10009000A59135912591059107FD0CC0959185910C
:1000A000EF01F92FE82F05900D92A217B307D9F7AA
:1000B000FE0104C01D92A217B307E1F7E937F40768
:0A00C00031F70AD002C0F894FFCF18
:0E00CA00EC0120D01CD0CE011BD0CE011AD0EC
:1000D800F6D041E066E089E390E016D040E062E0C7
:1000E80080E390E011D060E086E059D060E08CE6D3
:1000F80091E082D041E062E080E390E095D0FACFD1
:02010800089558
:02010A00089556
:02010C00DCDF36
:02010E00089552
:100110000F931F93062F10E00830110548F4F801E3
:10012000E65DFF4FD2C0FC01218140FB27F921830E
:100130001F910F910895FC01218140FB26F9218335
:100140001F910F910895FC01218140FB20F921832B
:100150001F910F910895FC01218140FB21F921831A
:100160001F910F910895FC01218140FB22F9218309
:100170001F910F910895FC01218140FB23F92183F8
:100180001F910F910895FC01218140FB24F92183E7
:100190001F910F910895FC01218140FB25F92183D6
:0601A0001F910F9108956C
:1001A6009BEF980F933050F49BB721E030E0082E78
:1001B60001C0220F0A94EAF7292B2BBF863029F0BB
:1001C600873049F0853081F0089585B78C7F85BFEB
:1001D60085B7862B85BF85B7837F85BF85B7962F65
:1001E600990F990F892B85BF84B7623019F0806407
:0A01F60084BF08958F7B84BF089535
:10020000613061F038F0623091F490936500809332
:100210006400089590936100809360009093630060
:100220008093620090936500809364000895089520
:100230000F931F93062F10E00830110548F4F801C2
:10024000EE5CFF4F42C0FC01228140FB27F9228374
:100250001F910F910895FC01228140FB26F9228312
:100260001F910F910895FC01228140FB20F9228308
:100270001F910F910895FC01228140FB21F92283F7
:100280001F910F910895FC01228140FB22F92283E6
:100290001F910F910895FC01228140FB23F92283D5
:1002A0001F910F910895FC01228140FB24F92283C4
:1002B0001F910F910895FC01228140FB25F92283B3
:0602C0001F910F9108954B
:0402C600789408958B
:0C02CA00EE0FFF1F0590F491E02D099449
:0202D60094CEC4
:0A02D80041E066E089E390E0A7CF63
:1002E2001F920F920FB60F9211242F933F934F93A9
:1002F2005F936F937F938F939F93AF93BF93EF938C
:10030200FF93E0916000F0916100309709F0099548
:10031200FF91EF91BF91AF919F918F917F916F91DB
:100322005F914F913F912F910F900FBE0F901F90B1
:0203320018951C
:100334001F920F920FB60F9211242F933F934F9356
:100344005F936F937F938F939F93AF93BF93EF9339
:10035400FF93E0916200F0916300309709F00995F2
:10036400FF91EF91BF91AF919F918F917F916F9189
:100374005F914F913F912F910F900FBE0F901F905F
:020384001895CA
:100386001F920F920FB60F9211242F933F934F9304
:100396005F936F937F938F939F93AF93BF93EF93E7
:1003A600FF93E0916400F0916500309709F009959C
:1003B600FF91EF91BF91AF919F918F917F916F9137
:1003C6005F914F913F912F910F900FBE0F901F900D
:0203D600189578
:00000001FF
