:100000000C9444000C949E030C949E030C949E0349
:100010000C949E030C949E030C949E030C949E03DC
:100020000C949E030C949E030C949E030C949E03CC
:100030000C949E030C949E030C949E030C949E03BC
:100040000C949E030C949E030C949E030C949E03AC
:100050000C949E035A007B009C00BD00DE00FF0054
:10006000200141016201830107030D0313031903FA
:100070001F0325032B03310345034B035103570390
:100080005D03630369036F0311241FBECFE5D8E04E
:10009000DEBFCDBF0E9491030C948603F894FFCF7E
:1000A00090E08A30910508F04EC1FC01E65DFF4FFB
:1000B0000C94980340E050E060E070E086E390E04C
:1000C0000E94390340E050E061E070E086E390E098
:1000D0000E94390340E050E062E070E086E390E087
:1000E0000E94390340E050E064E070E086E390E075
:1000F0000E943903089541E050E060E070E086E33B
:1001000090E00E94390340E050E061E070E086E357
:1001100090E00E94390340E050E062E070E086E346
:1001200090E00E94390340E050E064E070E086E334
:1001300090E00E943903089540E050E060E070E0F4
:1001400086E390E00E94390341E050E061E070E016
:1001500086E390E00E94390340E050E062E070E006
:1001600086E390E00E94390340E050E064E070E0F4
:1001700086E390E00E943903089541E050E060E09A
:1001800070E086E390E00E94390341E050E061E0D6
:1001900070E086E390E00E94390340E050E062E0C6
:1001A00070E086E390E00E94390340E050E064E0B4
:1001B00070E086E390E00E943903089540E050E04B
:1001C00060E070E086E390E00E94390340E050E098
:1001D00061E070E086E390E00E94390341E050E086
:1001E00062E070E086E390E00E94390340E050E076
:1001F00064E070E086E390E00E943903089541E0F6
:1002000050E060E070E086E390E00E94390340E057
:1002100050E061E070E086E390E00E94390341E045
:1002200050E062E070E086E390E00E94390340E035
:1002300050E064E070E086E390E00E9439030895A6
:1002400040E050E060E070E086E390E00E94390317
:1002500041E050E061E070E086E390E00E94390305
:1002600041E050E062E070E086E390E00E943903F4
:1002700040E050E064E070E086E390E00E943903E3
:10028000089541E050E060E070E086E390E00E9475
:10029000390341E050E061E070E086E390E00E94C5
:1002A000390341E050E062E070E086E390E00E94B4
:1002B000390340E050E064E070E086E390E00E94A3
:1002C0003903089540E050E060E070E086E390E09C
:1002D0000E94390340E050E061E070E086E390E086
:1002E0000E94390340E050E062E070E086E390E075
:1002F0000E94390341E050E064E070E086E390E062
:100300000E943903089541E050E060E070E086E328
:1003100090E00E94390340E050E061E070E086E345
:1003200090E00E94390340E050E062E070E086E334
:1003300090E00E94390341E050E064E070E086E321
:0803400090E00E9439030895CA
:10034800EF92FF920F931F93CF93DF93EC019C01E1
:10035800ADECBCEC0E9477039695879596958795AA
:1003680096958795AC01440F551F880F991F880FE4
:10037800991F880F991F480F591F0E9477037C0106
:10038800F694E794F694E794F694E7948C2F841BFC
:100398000E94500089EF90E00197F1F700C000003B
:1003A80041E050E063E070E089E390E00E943903A7
:1003B80040E050E062E070E089E390E00E94390399
:1003C8009701ADECBCEC0E947703969587959695BE
:1003D800879596958795AC01440F551F880F991FEF
:1003E800880F991F880F991F480F591F9E0136952E
:1003F800279536952795ABE7B4E10E9477038C01E2
:10040800169507958E2D841B0E94500089EF90E069
:100418000197F1F700C0000041E050E062E070E0B1
:1004280089E390E00E94390340E050E065E070E025
:1004380086E390E00E9439039801ADECBCEC0E9481
:100448007703969587959695879596958795AC01A8
:10045800440F551F880F991F880F991F880F991FE0
:10046800480F591F9E01369527953695279536953D
:100478002795A5ECB0E20E947703EC01D295C295CE
:10048800CF70CD27DF70CD27802F841B0E945000AE
:1004980089EF90E00197F1F700C0000041E050E0DB
:1004A80065E070E086E390E00E94390340E050E0A8
:1004B80066E070E086E390E00E9439039E01ADECAF
:1004C800BCEC0E94770396958795969587959695A7
:1004D80087959C01220F331F880F991F880F991F3A
:1004E800880F991F820F931F2C2F281B822F0E9481
:1004F800500089EF90E00197F1F700C0000041E05B
:1005080050E066E070E086E390E00E94390340E046
:1005180050E063E070E089E390E00E943903DF91E6
:0C052800CF911F910F91FF90EF9008956C
:1005340041E050E066E070E086E390E00E94FB0258
:1005440041E050E065E070E086E390E00E94FB0249
:1005540041E050E062E070E089E390E00E94FB0239
:1005640041E050E063E070E089E390E00E94FB0228
:1005740041E050E066E070E086E390E00E943903D9
:1005840041E050E065E070E086E390E00E943903CA
:1005940041E050E062E070E089E390E00E943903BA
:1005A40041E050E063E070E089E390E00E943903A9
:1005B40041E050E060E070E086E390E00E94FB02DE
:1005C40041E050E061E070E086E390E00E94FB02CD
:1005D40041E050E062E070E086E390E00E94FB02BC
:1005E40041E050E064E070E086E390E00E94FB02AA
:0205F400089568
:1005F6000F931F93062F10E008301105A0F5F801A0
:10060600EC5CFF4F0C949803FC01218140FB20F920
:10061600218329C0FC01218140FB21F9218323C0CC
:10062600FC01218140FB22F921831DC0FC012181AF
:1006360040FB23F9218317C0FC01218140FB24F9EB
:10064600218311C0FC01218140FB25F921830BC0C8
:10065600FC01218140FB26F9218305C0FC01218193
:0C06660040FB27F921831F910F9108959C
:100672000F931F93062F10E008301105A0F5F80123
:10068200E45CFF4F0C949803FC01228140FB20F9AB
:10069200228329C0FC01228140FB21F9228323C04D
:1006A200FC01228140FB22F922831DC0FC01228130
:1006B20040FB23F9228317C0FC01228140FB24F96D
:1006C200228311C0FC01228140FB25F922830BC049
:1006D200FC01228140FB26F9228305C0FC01228114
:0C06E20040FB27F922831F910F9108951F
:1006EE00A29FB001B39FC001A39F700D811D112465
:0E06FE00911DB29F700D811D1124911D089554
:10070C00EC010E94A3030E94A203CE010E94A40349
:06071C00CE010E94A003C3
:0E0722000E949A0282EB94E00E94A401FFCF95
:0C073000EE0FFF1F0590F491E02D0994DE
:04073C000C94000019
:040740000E944E00C5
:02074400089516
:02074600089514
:02074800089512
:00000001FF
