:100000000C9448000C9488040C9488040C94880484
:100010000C9488040C9488040C9488040C94880430
:100020000C9488040C9488040C943B030C941203E5
:100030000C9488040C9488040C9488040C94880410
:100040000C9488040C9488040C9488040C94880400
:100050000C948804400246024C02520258025E028E
:1000600064026A027E0284028A02900296029C0264
:10007000A202A802BA02BE02C302C902CF02D4027F
:10008000DA02E0020060006600092200660071806A
:1000900011241FBECFE5D8E0DEBFCDBFE4E8F0E01D
:1000A00040E017C0B591A59135912591059107FDC7
:1000B0000CC095918591EF01F92FE82F05900D92D5
:1000C000A217B307D9F7FE0104C01D92A217B30708
:1000D000E1F7E039F40731F70E947F040C946604DD
:0400E000F894FFCFC2
:0400E4000706050402
:1000E8008F929F92AF92BF92CF92DF92EF92FF9240
:1000F8006B017C018AE0C816D104E104F1040CF418
:100108004CC084E6C816D104E104F1047CF188EE01
:10011800C81683E0D806E104F104A4F0C701B601CB
:1001280028EE33E040E050E00E94E203CA01B90142
:100138002AE030E040E050E00E94E20380E3860FCE
:100148000E94F903C701B60124E630E040E050E020
:100158000E94E203CA01B9012AE030E040E050E021
:100168000E94E20380E3860F0E94F9030F2EFAE053
:100178008F2E912CA12CB12CF02DC701B601A50111
:1001880094010E94E203CA01B901A50194010E94E9
:10019800E20380E3860F0E94F903C701B6012AE053
:1001A80030E040E050E00E94E20380E3860F0E94C6
:1001B800F903FF90EF90DF90CF90BF90AF909F90A2
:0401C8008F90089577
:1001CC00CF93DF9341E061E083E390E00E9434023F
:1001DC0041E060E083E390E00E94340241E061E0A2
:1001EC0083E390E00E943402C0E0D0E011C0CE0165
:1001FC000D2E000CAA0B8C519F4FAF4FFC0164913C
:10020C00A7FD608141E083E390E00E9434022196D7
:10021C00C430D10564F340E060E083E390E00E94D9
:10022C00720283E00E940C0487EE93E00197F1F7D1
:10023C0000C0000083E00E940C0487EE93E001975D
:10024C00F1F700C0000083E00E940C0487EE93E0FD
:10025C000197F1F700C0000082E00E940C0488E2D4
:10026C000E940C0488E00E940C0481E00E940C04A3
:10027C0086E00E940C048CE00E940C0487E893E159
:0E028C000197F1F700C00000DF91CF910895B7
:10029A00DF92EF92FF920F931F93CF93DF93D82EA3
:1002AA00E12CF12C07E010E03CC04D2D50E0002E6F
:1002BA0002C0559547950A94E2F74170CE010D2E7A
:1002CA00000CAA0B8C519F4FAF4FFC016491A7FD04
:1002DA00608183E390E00E94720201501109219625
:1002EA0002C0C0E0D0E0C430D105FCF241E061E0D8
:1002FA0083E390E00E94720289EF90E00197F1F7A0
:10030A0000C0000040E061E083E390E00E947202D6
:10031A0081EE94E00197F1F700C000009FEFE91A1F
:10032A00F90A82E0E816F104E4F2DF91CF911F9115
:0A033A000F91FF90EF90DF900895FF
:10034400FC0183B79081887F892B83BF81818130B1
:10035400A1F028F0823051F08330B1F01BC083B794
:10036400877F83BF83B78F7B83BF14C083B78860C5
:1003740083BF83B78F7B83BF0DC083B7877F83BF62
:1003840083B7806483BF06C083B7886083BF83B7A5
:10039400806483BF8281813069F028F0823089F0E3
:1003A4008330B1F0089583B78F7E83BF83B78F7D89
:1003B40083BF089583B7806183BF83B78F7D83BF75
:1003C400089583B78F7E83BF83B7806283BF089508
:0E03D40083B7806183BF83B7806283BF0895C3
:1003E20080916A0090916B00019690936B008093CC
:1003F2006A0080916A0090916B004F9761F480913E
:1004020070008F5F8093700010926B0010926A00F0
:1004120081E080936E00209170008BEA289F812DED
:10042200112486958695982F990F890F982F990FE9
:10043200291307C080917000882319F081E080930E
:100442006D008091700080FD07C08091700088234C
:1004520019F081E080936F0080917000873011F471
:06046200109270000895E5
:100468000F931F93062F10E008301105A0F5F8012F
:10047800E65DFF4F0C947904FC01218140FB20F9D3
:10048800218329C0FC01218140FB21F9218323C05C
:10049800FC01218140FB22F921831DC0FC0121813F
:1004A80040FB23F9218317C0FC01218140FB24F97B
:1004B800218311C0FC01218140FB25F921830BC058
:1004C800FC01218140FB26F9218305C0FC01218123
:0C04D80040FB27F921831F910F9108952C
:1004E4000F931F93062F10E008301105A0F5F801B3
:1004F400EE5CFF4F0C947904FC01228140FB20F94F
:10050400228329C0FC01228140FB21F9228323C0DC
:10051400FC01228140FB22F922831DC0FC012281BF
:1005240040FB23F9228317C0FC01228140FB24F9FC
:10053400228311C0FC01228140FB25F922830BC0D8
:10054400FC01228140FB26F9228305C0FC012281A3
:0C05540040FB27F922831F910F910895AE
:10056000462F50E04830510580F5FA01E65CFF4F18
:100570000C947904FC012081217027C0FC012081AA
:100580002695217022C0FC01208122FB222720F920
:100590001CC0FC01208123FB222720F916C0FC018E
:1005A00020812295217011C0FC01208125FB22278A
:1005B00020F90BC0FC01208126FB222720F905C071
:0E05C000FC01208127FB222720F9822F0895BD
:1005CE00CF93DF9300D000D0CDB7DEB70E94E60008
:1005DE000E94840482E08A8385E0898389EF0E94E9
:1005EE008A04CE0101960E94A2010E94A80381E016
:1005FE008C83CE0104960E945704BE016C5F7F4F20
:10060E0081EF91E00E9445040F900F900F900F9094
:06061E00DF91CF91089569
:100624001F920F920FB60F9211242F933F934F9363
:100634005F936F937F938F939F93AF93BF93EF9346
:10064400FF93E0916600F0916700309709F00995F7
:10065400FF91EF91BF91AF919F918F917F916F9196
:100664005F914F913F912F910F900FBE0F901F906C
:020674001895D7
:100676001F920F920FB60F9211242F933F934F9311
:100686005F936F937F938F939F93AF93BF93EF93F4
:10069600FF93E0916800F0916900309709F00995A1
:1006A600FF91EF91BF91AF919F918F917F916F9144
:1006B6005F914F913F912F910F900FBE0F901F901A
:0206C600189585
:1006C80080916E00813039F4E0916200F09163000E
:1006D800099510926E0080916F00813039F4E09195
:1006E8006000F0916100099510926F0080916D0093
:1006F800813039F4E0916400F09165000995109219
:040708006D000895E3
:10070C00A1E21A2EAA1BBB1BFD010DC0AA1FBB1F09
:10071C00EE1FFF1FA217B307E407F50720F0A21B7B
:10072C00B30BE40BF50B661F771F881F991F1A94E8
:10073C0069F760957095809590959B01AC01BD0112
:04074C00CF0108953C
:1007500041E064E089E390E00E94340241E065E01A
:1007600089E390E00E94340241E067E089E390E091
:100770000E94340240E061E089E390E00E9434028C
:0E07800041E061E089E390E00E94720208957A
:10078E0061E089E390E00E94B002811113C041E064
:10079E0080916C00811140E040936C0065E089E32C
:1007AE0090E00E94720260916C0070E080E090E038
:0607BE000E947400089582
:1007C400052E97FB1EF400940E94710457FD07D078
:1007D4000E94860307FC03D04EF40C9471045095D8
:0E07E4004095309521953F4F4F4F5F4F089540
:1007F200CF93C82F41E060E083E390E00E94720251
:100802008C2F0E944D0189EF90E00197F1F700C013
:060812000000CF910895E3
:10081800CF93C82F40E060E083E390E00E9472022B
:100828008C2F0E944D0189EF90E00197F1F700C0ED
:060838000000CF910895BD
:10083E0041E067E089E390E00E94720281EF9BE263
:10084E000197F1F700C0000040E067E089E390E017
:06085E000E9472020895E1
:1008640041E064E089E390E00E94720281EF9BE240
:100874000197F1F700C0000040E064E089E390E0F4
:060884000E9472020895BB
:10088A009C01FB019081992319F0913031F0089570
:10089A00309367002093660008953093690020938F
:0408AA006800089545
:1008AE00FC018081882319F0813029F0089589B7E1
:0E08BE00816089BF089589B7826089BF08955F
:1008CC00EC010E948F040E948E04CE010E949004C1
:0608DC00CE010E948C0415
:1008E20090958095709561957F4F8F4F9F4F08959A
:0C08F200EE0FFF1F0590F491E02D09941B
:0A08FE000E94E7020E946403FDCF90
:080908008FB780688FBF0895CE
:040910000C94000043
:040914008CBF0895F7
:040918000E947000C9
:02091C0008953C
:02091E0008953A
:02092000089538
:060922001F04C7033204AC
:00000001FF
