:100000003FC0000074C2000072C2000070C2000055
:100010006EC200006CC200006AC2000068C200002C
:1000200066C2000064C2000062C2000060C200003C
:100030005EC200005CC200005AC2000058C200004C
:1000400056C2000054C2000052C2000050C200005C
:100050004EC20000B301BB01C301CB01D301DB01E0
:10006000AB01A301120223022A0234023E024F0214
:1000700059026A02FA010B02006000640004F000F9
:1000800011241FBECFE5D8E0DEBFCDBFE8E7F0E02A
:1000900040E017C0B591A59135912591059107FDD7
:1000A0000CC095918591EF01F92FE82F05900D92E5
:1000B000A217B307D9F7FE0104C01D92A217B30718
:1000C000E1F7EF37F40731F70AD002C0F894FFCF19
:0E00D000EC011CD018D0CE0117D0CE0116D0F6
:1000DE0022D11CD0D09814D0EC01892BE1F389EFFA
:1000EE0090E00197F1F700C00000CE014BD008D090
:0800FE00C817D907E1F3EFCFA9
:0201060008955A
:02010800089558
:02010A00E0DF34
:02010C00089554
:0C010E00369A3699FECF84B195B1089561
:10011A00E0916200F0916300818181608183818135
:10012A00826081838181846081838181806181830E
:10013A00818180628183818180648183A091600052
:10014A00B091610011968C911197886011968C93E9
:10015A00119711968C911197846011968C9311972F
:10016A0082818062828382818F7B828312968C91C4
:10017A001297886012968C93129712968C91129706
:08018A00846012968C93089525
:100192000F931F93CF93DF93EC019C01ADECBCEC6A
:1001A20011D18C0116950795169507951695079509
:1001B2008C2F2AE0029F8019112413D189EF90E03D
:1001C2000197F1F700C0000041E050E063E070E009
:1001D2008091600090916100AAD040E050E062E01E
:1001E20070E08091600090916100A1D09801ADEC27
:1001F200BCECE8D0969587959695879596958795C8
:10020200302F2AE0829F30191124832FEAD089EF00
:1002120090E00197F1F700C0000041E050E062E099
:1002220070E0809160009091610081D040E050E0E8
:1002320065E070E0809162009091630078D09E0149
:100242003695279536952795ABE7B4E1BBD0AC013F
:10025200569547959A01ADECBCECB4D0969587952E
:100262009695879596958795342F2AE0829F301927
:100272001124832FB6D089EF90E00197F1F700C0E7
:10028200000041E050E065E070E0809162009091F2
:1002920063004DD040E050E066E070E08091620083
:1002A2009091630044D09E01369527953695279507
:1002B20036952795A5ECB0E285D0AC0152954295D2
:1002C2004F7045275F7045279A01ADECBCEC7AD0A0
:1002D200969587959695879596958795342F2AE0DA
:1002E200829F30191124832F7CD089EF90E00197EF
:1002F200F1F700C0000041E050E066E070E080915C
:1003020062009091630013D040E050E063E070E03F
:100312008091600090916100DF91CF911F910F91C8
:0203220006C013
:0C0324003E9A379A309A319A329A089526
:100330000F931F93062F10E00830110548F4F801C1
:10034000E65DFF4FCEC0FC01228140FB27F92283EE
:100350001F910F910895FC01228140FB26F9228311
:100360001F910F910895FC01228140FB20F9228307
:100370001F910F910895FC01228140FB21F92283F6
:100380001F910F910895FC01228140FB22F92283E5
:100390001F910F910895FC01228140FB23F92283D4
:1003A0001F910F910895FC01228140FB24F92283C3
:1003B0001F910F910895FC01228140FB25F92283B2
:0603C0001F910F9108954A
:1003C600A29FB001B39FC001A39F700D811D112490
:0E03D600911DB29F700D811D1124911D08957F
:1003E40090E08A309105A0F4FC01EE5CFF4F77C0E9
:1003F400E0916200F091630082818E7F828382812A
:100404008D7F828382818B7F8283828180618283DC
:100414000895E0916200F091630082818160EECFE3
:10042400E0916200F091630082818E7F82838281F9
:100434008D7F828382818B7F828382818F7E828380
:100444000895E0916200F091630082818160EECFB3
:10045400E0916200F091630082818E7F82838281C9
:100464008260E7CFE0916200F09163008281816055
:10047400828382818260DDCFE0916200F09163002B
:1004840082818E7F828382818D7F82838281846058
:10049400828382818F7E82830895E0916200F0914D
:1004A400630082818160828382818D7FEECFE091BF
:1004B4006200F091630082818E7F828382818260F8
:1004C400828382818460828382818F7E8283089585
:0E04D400E0916200F091630082818160EECFC2
:0C04E200EE0FFF1F0590F491E02D09942F
:0204EE0088CDB7
:0204F0003900D1
:0204F2003600D2
:00000001FF
