:1000000029C0000059C0000057C0000055C00000C2
:1000100053C0000051C000004FC000004DC00000A0
:100020004BC0000049C0000047C0000045C00000B0
:1000300043C0000041C000003FC000003DC00000C0
:100040003BC0000039C0000037C0000035C00000D0
:1000500033C0000011241FBECFE5D8E0DEBFCDBF06
:080060000AD002C0F894FFCFA2
:0E006800EC0119D015D0CE0114D0CE0113D06A
:100076001AD0D09812D0EC01892BE1F389EF90E0E9
:100086000197F1F700C0000008D0C817D907E1F3BF
:02009600F1CFA8
:020098000895C9
:02009A000895C7
:02009C00E3DFA0
:02009E000895C3
:0C00A000369A3699FECF84B195B10895D0
:0C00AC003E9A379A309A319A329A0895A1
:0200B800A3CFD4
:00000001FF
