:100000000C942A000C945F000C945F000C945F0029
:100010000C945F000C945F000C945F000C945F00E4
:100020000C945F000C945F000C945F000C945F00D4
:100030000C945F000C945F000C945F000C945F00C4
:100040000C945F000C945F000C945F000C945F00B4
:100050000C945F0011241FBECFE5D8E0DEBFCDBFFA
:10006000E4E5F0E040E017C0B591A5913591259108
:10007000059107FD0CC095918591EF01F92FE82FAF
:1000800005900D92A217B307D9F7FE0104C01D9287
:10009000A217B307E1F7E435F40731F70E946300D4
:0800A0000C945400F894FFCF0A
:1000A800EC010E9465000E946400CE010E94660077
:0600B800CE010E94610070
:0400BE000C9400009E
:0400C2000E94520046
:0200C600FFCF6A
:0200C800089599
:0200CA00089597
:0200CC00089595
:00000001FF
