:1000000043C000005AC2000058C2000056C200009F
:1000100054C2000052C2000050C200004EC2000094
:100020004CC200004AC2000048C2000046C20000A4
:1000300044C2000042C2000040C200003EC20000B4
:100040003CC200003AC2000038C2000036C20000C4
:1000500034C20000CC01E001E201E901F001FC0141
:10006000FE010A02B601CA0127022F0237023F022F
:1000700047024F021F0217026E0176017E018601C0
:100080008E01960166015E0111241FBECFE5D8E006
:0C009000DEBFCDBF0AD002C0F894FFCF45
:0E009C00EC011ED01AD0CE0119D0CE0118D022
:1000AA00C1D0C0E0D0E009C02FE986E891E0215034
:1000BA0080409040E1F700C00000CE010BD02196AD
:0C00CA00C436D10589F7C0E0D0E0EECFCD
:0200D60008958B
:0200D800089589
:0200DA00DEDF67
:0200DC00089585
:1000DE000F931F93CF93DF93EC0141E063E089E32D
:1000EE0090E0DAD040E066E086E390E0D5D09E0165
:1000FE00369527953695279536952795A5ECB0E23A
:10010E0016D1AC01529542954F7045275F70452729
:10011E009A01ADECBCEC0BD196958795969587958B
:10012E0096958795342F2AE0829F30191124832FBC
:10013E000DD185ED96E00197F1F700C0000041E08A
:10014E0066E086E390E0A8D040E065E086E390E0CC
:10015E00A3D09E013695279536952795ABE7B4E14A
:10016E00E6D0AC01569547959A01ADECBCECDFD0CC
:10017E00969587959695879596958795342F2AE02F
:10018E00829F30191124832FE1D085ED96E00197DF
:10019E00F1F700C0000041E065E086E390E07CD01E
:1001AE0040E062E089E390E077D09E01ADECBCECDC
:1001BE00BED08C0116950795169507951695079541
:1001CE009801B5D09695879596958795969587952E
:1001DE00302F2AE0829F30191124832FB7D085ED5E
:1001EE0096E00197F1F700C0000041E062E089E37C
:1001FE0090E052D040E063E089E390E04DD08C2F48
:10020E009AE0099F80191124A1D085ED96E00197FF
:10021E00F1F700C00000DF91CF911F910F9108956B
:10022E0041E066E086E390E0F0D041E065E086E3F1
:10023E0090E0EBD041E062E089E390E0E6D041E06F
:10024E0063E089E390E0E1D041E066E086E390E090
:10025E0023D041E065E086E390E01ED041E062E00D
:10026E0089E390E019D041E063E089E390E014D097
:10027E0041E060E086E390E0C8D041E061E086E3D3
:10028E0090E0C3D041E062E086E390E0BED041E072
:08029E0064E086E390E0B9C0C2
:1002A6000F931F93062F10E00830110548F4F8014C
:1002B600E45CFF4FF9C0FC01228140FB27F9228351
:1002C6001F910F910895FC01228140FB26F922839C
:1002D6001F910F910895FC01228140FB20F9228392
:1002E6001F910F910895FC01228140FB21F9228381
:1002F6001F910F910895FC01228140FB22F9228370
:100306001F910F910895FC01228140FB23F922835E
:100316001F910F910895FC01228140FB24F922834D
:100326001F910F910895FC01228140FB25F922833C
:060336001F910F910895D4
:10033C00A29FB001B39FC001A39F700D811D11241A
:0E034C00911DB29F700D811D1124911D089509
:10035A0090E08A30910508F00895FC01E65DFF4FB0
:10036A00A1C040E060E086E390E098DF40E061E011
:10037A0086E390E093DF40E062E086E390E08EDF80
:10038A0041E064E086E390E089CF41E0EBCF40E0D2
:10039A0060E086E390E082DF40E061E086E390E09F
:1003AA007DDF40E062E086E390E078DF40E064E0F1
:1003BA0086E390E073CF41E0EBCF40E060E086E374
:1003CA0090E06CDF41E0E9CF41E060E086E390E055
:1003DA0065DF41E0E2CF40E060E086E390E05EDF87
:1003EA0040E061E086E390E059DF41E0DBCF41E0A5
:1003FA00F3CF40E060E086E390E050DF41E061E067
:0E040A0086E390E04BDF41E0CDCF41E0F3CF41
:100418000F931F93062F10E00830110548F4F801D8
:10042800EC5CFF4F40C0FC01218140FB27F9218390
:100438001F910F910895FC01218140FB26F921832A
:100448001F910F910895FC01218140FB20F9218320
:100458001F910F910895FC01218140FB21F921830F
:100468001F910F910895FC01218140FB22F92183FE
:100478001F910F910895FC01218140FB23F92183ED
:100488001F910F910895FC01218140FB24F92183DC
:100498001F910F910895FC01218140FB25F92183CB
:0604A8001F910F91089561
:0C04AE00EE0FFF1F0590F491E02D099463
:0204BA00A2CDD1
:00000001FF
