:1000000041C00000C0C40000BEC40000BCC4000069
:10001000BAC40000B8C40000B6C40000B4C40000F4
:10002000B2C40000B0C40000AEC40000ACC4000004
:10003000AAC40000A8C40000A6C40000A4C4000014
:10004000A2C40000A0C400009EC400009CC4000024
:100050009AC4000063046B0473047B0483048B0460
:100060005B045304B603BE03C603CE03D603DE030C
:10007000AE03A60315041A04200427042E0400046A
:1000800007040E0411241FBECFE5D8E0DEBFCDBFAC
:080090000AD002C0F894FFCF72
:0E009800EC012BD127D1CE0126D1CE0125D1EE
:1000A600CF93DF93CDB7DEB7EB970FB6F894DEBFED
:1000B6000FBECDBF84D245D21DAA1EAA1FAA18AE56
:1000C60019AA1AAA1BAA1CAA82E199E09EA78DA7C3
:1000D60082ED94E098AB8FA78E01075E1F4F26E056
:1000E60030E044EA59E060E0C801AED180E097E034
:1000F6009E8B8D8B8EE296E1988F8F8B25E030E07C
:100106004AEA59E060E0CE0101967C019DD1FE01EC
:10011600F5965F019E01275C3F4F490188EE682EE8
:1001260083E0782EC701A0E889AF9AAFABAF18017C
:1001360090E8492E80E8DBD06FEA79E080E0E8D0ED
:10014600AFE7E4E8FEE1A150E040F040E1F700C08F
:10015600000081E0CCD07501FDD08823E9F3FAD008
:1001660000ED080FF70101937F01602F70E080E03A
:1001760090E083D183EC99E00197F1F700C000008D
:1001860010E0E8D090E0C09708171907D1F38E1455
:100196009F0411F79EA98FA92DA9269D6001279D71
:1001A600D00C1124A4E69A9FC00CD11C1124EAE0BD
:1001B6008E9FC00CD11C112488ADC80ED11C80E8BE
:1001C60096D06DEB79E080E0A3D0FFEF24E33CE02E
:1001D600F15020403040E1F700C0000081E087D0B8
:1001E600CE01C1967C01B6D08823E9F3B3D000EDE9
:1001F600080FF70101937F01602F70E080E090E027
:100206003CD183EC99E00197F1F700C0000010E0C3
:10021600A1D090E0C09780179107D1F3EA14FB04B0
:1002260011F73AA92BA949A9469DC001479D900DF2
:100236001124A4E63A9F800D911D1124EAE02E9F19
:10024600800D911D11242CA9820F911D2DA53EA56F
:10025600C216D30679F12D893E89C216D306D1F48A
:100266002F89388D8217930709F064CF80E83FD035
:100276006CEC79E080E04CD069AD7AAD8BAD48D0BE
:100286004FE784E89EE1415080409040E1F700C08E
:10029600000050CF80E82BD066ED79E080E038D0C2
:1002A600AFE7E4E8FEE1A150E040F040E1F700C02E
:1002B600000040CF2FA538A98217930709F03ACF3F
:1002C60080E815D06CEC79E080E022D0842DB10175
:1002D6001FD0FFE724E83EE1F15020403040E1F72F
:0602E60000C0000027CF5C
:0202EC00089573
:0202EE00089571
:0202F000D1DE5D
:0202F20008956D
:1002F400CF93C82F40E063E089E390E01AD28C2FBB
:10030400BED189EF90E00197F1F700C00000CF91D2
:0203140008954A
:10031600CF92DF92EF926B01E82EFB018491E7FC0E
:100326008081882399F09FEFC91AD90AE90A4BD22E
:100336008FEFC81AD80AE80AAE2DC6010197A1099F
:10034600FC018491A7FD80818111F1CFEF90DF90B0
:04035600CF900895A7
:10035A006F927F928F92CF92DF92EF92CF93DF9339
:10036A002CE8622E29E0722E20E0822EC5E0D0E031
:10037A008CE8C82E89E0D82E80E0E82E65E041E0BE
:10038A0083E390E0D3D12FEFC21AD20AE20A80E9BE
:10039A00C81689E0D80680E0E80629F0F6016491DB
:1003AA00E7FC6081ECCF40E06C2F83E390E0BED1A4
:1003BA0098E8C92E99E0D92E90E0E92E67E0C0E0CE
:1003CA0080E390E00FD2882381F0CF5F8FEFC81AC5
:1003DA00D80AE80AC430D9F0F6016491E7FC6081D2
:1003EA0080E390E0FFD18111F0CF8C2F90E024E0E0
:1003FA00D29F800D911D1124092E000CAA0B805743
:10040A00964FAF4FFC018491A7FD808112C089EFFE
:10041A0090E00197F1F700C00000DF5F9FEF691AD3
:10042A00790A890AD43029F0F301C49187FCC08182
:10043A009FCFDF91CF91EF90DF90CF908F907F90F9
:04044A006F90089512
:10044E00CF92DF92EF926A01E62EDC01280F391F60
:10045E00A217B30751F0F6014491E7FC40814D938A
:10046E004FEFC41AD40AE40AF3CFEF90DF90CF9087
:02047E000895DF
:100480008F929F92AF92BF92CF92DF92EF92FF92A4
:100490006B017C018AE0C816D104E104F10484F107
:1004A00084E6C816D104E104F104C4F088EEC8164D
:1004B00083E0D806E104F104ACF5C701B60124E6F7
:1004C00030E040E050E0D0D1CA01B9012AE030E08C
:1004D00040E050E0C9D180E3860F78D18AE0882ED1
:1004E000912CA12CB12CC701B601A5019401BCD15E
:1004F000CA01B901A5019401B7D180E3860F66D185
:10050000C701B6012AE030E040E050E0ADD180E321
:10051000860FFF90EF90DF90CF90BF90AF909F90AD
:100520008F9054C1C701B60128EE33E040E050E09F
:100530009BD1CA01B9012AE030E040E050E094D1FB
:0805400080E3860F43D1B9CF1F
:100548006F927F928F92CF92DF92EF92CF938CE847
:10055800682E89E0782E80E0882E98E8C92E99E0E8
:10056800D92E90E0E92EC7E065E041E083E390E012
:100578008BD140E06C2F80E390E086D18FEF681A32
:10058800780A880A8FEFC81AD80AE80A8CE8C816C9
:1005980089E0D80680E0E80649F0F301649187FC19
:1005A8006081F601C491E7FCC081DFCFCF91EF9065
:0C05B800DF90CF908F907F906F9008959F
:1005C400CF92DF92EF9241E062E089E390E05ED166
:1005D40041E063E089E390E059D141E062E089E3DE
:1005E40090E054D180EAC82E89E0D82E80E0E82E2D
:1005F40064E041E086E390E049D18FEFC81AD80A5D
:10060400E80A94EAC91699E0D90690E0E90629F0C7
:10061400F6016491E7FC6081ECCF83ED90E30197F0
:10062400F1F700C0000040E063E089E390E081D08E
:1006340082E25EDE82E05CDE88E05ADE89EF90E0F2
:100644000197F1F700C0000080E052DE8CE050DE3C
:1006540089EF90E00197F1F700C0000080E048DEE8
:1006640081E046DE8DEE92E00197F1F700C00000D4
:0E06740080E03EDE86E0EF90DF90CF9039CE42
:10068200AF92BF92CF92DF92EF920F931F93CF93CD
:10069200DF93082F10E097E0A92EB12C80EAC82E34
:1006A20089E0D82E80E0E82EE50164E0A8010C2E56
:1006B20002C0559547950A94E2F7417086E390E0AF
:1006C20039D021979FEFC91AD90AE90A84EAC816D4
:1006D20089E0D80680E0E80629F0F6016491E7FC9B
:1006E2006081E4CF94E0A91AB10841E062E089E3B5
:1006F20090E020D089EF90E00197F1F700C0000070
:1007020040E062E089E390E015D081EE94E0019749
:10071200F1F700C000009FEFA916B90609F0BECF9D
:10072200DF91CF911F910F91EF90DF90CF90BF900B
:04073200AF900895E7
:100736000F931F93062F10E00830110548F4F801B7
:10074600EE5CFF4FEDC0FC01228140FB27F92283BE
:100756001F910F910895FC01228140FB26F9228307
:100766001F910F910895FC01228140FB20F92283FD
:100776001F910F910895FC01228140FB21F92283EC
:100786001F910F910895FC01228140FB22F92283DB
:100796001F910F910895FC01228140FB23F92283CA
:1007A6001F910F910895FC01228140FB24F92283B9
:1007B6001F910F910895FC01228140FB25F92283A8
:0607C6001F910F91089540
:1007CC00CF93C82F41E063E089E390E0AEDF8C2F3C
:1007DC0052DF89EF90E00197F1F700C00000CF9154
:0207EC0008956E
:1007EE00462F50E04830510548F4FA01E65CFF4FC1
:1007FE0093C0FC01208125FB222720F9822F08952A
:10080E00FC01208126FB222720F9822F0895FC016E
:10081E00208127FB222720F9822F0895FC012081B9
:10082E002170822F0895FC01208126952170822F40
:10083E000895FC01208122FB222720F9822F0895A2
:10084E00FC01208123FB222720F9822F0895FC0131
:0A085E00208122952170822F089559
:10086800052E97FB16F4009460D057FD05D065D08F
:1008780007FC02D046F459C0509540953095219513
:080888003F4F4F4F5F4F0895F1
:100890000F931F93062F10E00830110548F4F8015C
:1008A000E65DFF4F40C0FC01218140FB27F9218319
:1008B0001F910F910895FC01218140FB26F92183AE
:1008C0001F910F910895FC01218140FB20F92183A4
:1008D0001F910F910895FC01218140FB21F9218393
:1008E0001F910F910895FC01218140FB22F9218382
:1008F0001F910F910895FC01218140FB23F9218371
:100900001F910F910895FC01218140FB24F921835F
:100910001F910F910895FC01218140FB25F921834E
:060920001F910F910895E4
:0C092600EE0FFF1F0590F491E02D0994E6
:1009320090958095709561957F4F8F4F9F4F089549
:10094200A1E21A2EAA1BBB1BFD010DC0AA1FBB1FD1
:10095200EE1FFF1FA217B307E407F50720F0A21B43
:10096200B30BE40BF50B661F771F881F991F1A94B0
:1009720069F760957095809590959B01AC01BD01DA
:04098200CF01089504
:020986003CCB68
:040988000706050356
:04098C000504030259
:10099000303030303839303034353637303132332A
:0409A000040201004C
:1009A4005361726168005461686F00656E746572AA
:1009B40020796F757220696400656E7465722070A9
:1009C400617373776F72640077656C636F6D652C08
:0C09D400200074727920616761696E0078
:00000001FF
