:1000000039C000000AC1000008C1000006C100009C
:1000100004C1000002C1000000C10000FEC00000D9
:10002000FCC00000FAC00000F8C00000F6C00000EC
:10003000F4C00000F2C00000F0C00000EEC00000FC
:10004000ECC00000EAC00000E8C00000E6C000000C
:10005000E4C00000D700DF00E700EF00F700FF007A
:10006000CF00C7008C0094009C00A400AC00B4003A
:1000700084007C0011241FBECFE5D8E0DEBFCDBFD9
:080080000AD002C0F894FFCF82
:0E008800EC012AD026D0CE0125D0CE0124D006
:1000960041E067E086E390E06CD02FE986E891E0E6
:1000A600215080409040E1F700C0000041E067E049
:1000B60086E390E013D02FE986E891E02150804056
:1000C6009040E1F700C0000040E067E086E390E082
:0400D60005D0E3CF9F
:0200DA00089587
:0200DC00089585
:0200DE00D2DF6F
:0200E000089581
:1000E2000F931F93062F10E00830110548F4F80112
:1000F200EE5CFF4F8BC0FC01228140FB27F922837B
:100102001F910F910895FC01228140FB26F9228361
:100112001F910F910895FC01228140FB20F9228357
:100122001F910F910895FC01228140FB21F9228346
:100132001F910F910895FC01228140FB22F9228335
:100142001F910F910895FC01228140FB23F9228324
:100152001F910F910895FC01228140FB24F9228313
:100162001F910F910895FC01228140FB25F9228302
:060172001F910F9108959A
:100178000F931F93062F10E00830110548F4F8017B
:10018800E65DFF4F40C0FC01218140FB27F9218338
:100198001F910F910895FC01218140FB26F92183CD
:1001A8001F910F910895FC01218140FB20F92183C3
:1001B8001F910F910895FC01218140FB21F92183B2
:1001C8001F910F910895FC01218140FB22F92183A1
:1001D8001F910F910895FC01218140FB23F9218390
:1001E8001F910F910895FC01218140FB24F921837F
:1001F8001F910F910895FC01218140FB25F921836E
:060208001F910F91089503
:0C020E00EE0FFF1F0590F491E02D099405
:02021A00F2CE22
:00000001FF
