:100000000C943A000C94E0000C94E0000C94E00096
:100010000C94E0000C94E0000C94E0000C94E000E0
:100020000C94E0000C94E0000C94E0000C94E000D0
:100030000C94E0000C94E0000C94E0000C94E000C0
:100040000C94E0000C94E0000C94E0000C94E000B0
:100050000C94E000520058005E0064006A007000DA
:1000600076007C00900096009C00A200A800AE00E4
:10007000B400BA0011241FBECFE5D8E0DEBFCDBF6B
:0C0080000E94C2000C94CF00F894FFCF47
:10008C000F931F93062F10E008301105A0F5F8010F
:10009C00E65DFF4F0C94DA00FC01218140FB20F956
:1000AC00218329C0FC01218140FB21F9218323C03C
:1000BC00FC01218140FB22F921831DC0FC0121811F
:1000CC0040FB23F9218317C0FC01218140FB24F95B
:1000DC00218311C0FC01218140FB25F921830BC038
:1000EC00FC01218140FB26F9218305C0FC01218103
:0C00FC0040FB27F921831F910F9108950C
:100108000F931F93062F10E008301105A0F5F80192
:10011800EE5CFF4F0C94DA00FC01228140FB20F9D1
:10012800228329C0FC01228140FB21F9228323C0BC
:10013800FC01228140FB22F922831DC0FC0122819F
:1001480040FB23F9228317C0FC01228140FB24F9DC
:10015800228311C0FC01228140FB25F922830BC0B8
:10016800FC01228140FB26F9228305C0FC01228183
:0C01780040FB27F922831F910F9108958E
:1001840041E067E086E390E00E94460041E067E0DA
:0A01940086E390E00E948400FFCF94
:10019E00EC010E94E5000E94E400CE010E94E60000
:0601AE00CE010E94E200F8
:0C01B400EE0FFF1F0590F491E02D099460
:0401C0000C9400009B
:0401C4000E94440051
:0201C800089598
:0201CA00089596
:0201CC00089594
:00000001FF
